S01500004C574D5F4D5353595F646552462E73726563B4
S11300009AC00000B6C00000B4C00000B2C0000036
S1130010B0C00000AEC00000ACC00000AAC0000028
S1130020A8C00000A6C00000A4C00000A2C0000038
S1130030A0C000000C9486099CC000009AC0000077
S113004098C0000096C0000094C0000092C0000058
S113005090C0000070C300008CC000008AC0000083
S113006088C0000086C0000084C0000082C0000078
S113007080C000007EC000007CC000007AC0000088
S113008078C0000076C0000074C0000072C0000098
S11300900C94D7090C94BB096CC000006AC0000022
S11300A068C0000066C000000C94EF0862C0000045
S11300B060C000005EC000005CC000005AC00000C8
S11300C058C0000056C0000054C0000052C00000D8
S11300D050C000004EC000004CC000004AC00000E8
S11300E048C0000046C0000044C0000042C00000F8
S11300F040C000003EC000003CC000003AC0000008
S113010038C0000036C0000034C0000032C0000017
S113011030C000002EC000002CC000002AC0000027
S113012032074B082307E107230782082307230725
S11301308A089208A10811241FBECFEFD1E4DEBFC4
S1130140CDBF14E0A0E0B2E0EAE2F1E300E00BBFCF
S113015002C007900D92A633B107D9F72FE0A6E3AA
S1130160B4E001C01D92AD33B207E1F701D60C949F
S1130170931846CFACE7B0E01C92EAE7F0E01082B7
S11301809081892B80838C910024769567950794C0
S1130190769567950794762F602D682B6C938081F4
S11301A080688083EBE7F0E080818823ECF7EBE75D
S11301B0F0E0808185FFFDCF0895ECE7F0E08081D9
S11301C0807F8083ABE7B0E08C91877F8C938C91A8
S11301D088608C93808189608083EAE7F0E0808185
S11301E080648083808186FDFDCF209178003091EA
S11301F07900EAE7F0E0908190619083C901089565
S113020094B380E2892784BB0895CF93DF93662358
S1130210C9F1FC0120812031B9F56530B9F5EC0153
S113022083E894E00E940D1486E794E00E940D1484
S1130230E3E8F4E089819A81A0E0B0E086839783C3
S1130240A087B187128685E991E094878387CF01DF
S11302500E946414E6E7F4E08B819C81A0E0B0E0A6
S113026086839783A087B18781E0828780E091E0CD
S113027094878387CF010E946414A5980E94A80ADA
S113028081E005C080E003C080E001C080E0DF9130
S1130290CF910895FC01618587819085B6CF08953B
S11302A0EF92FF920F931F93CF93DF9380914704B4
S11302B090914804892B19F5C9E4D4E00F2EF6E790
S11302C0EF2EF4E0FF2EF02D06E314E08B8188235B
S11302D091F0D0934804C093470488819981F80130
S11302E096838583CE010496938782878A81848747
S11302F0C8010E94EA0A2996CE15DF0539F7DF9175
S1130300CF911F910F91FF90EF900895E0914704D2
S1130310F09148048FEF9FEF9183808313821092B2
S1130320480410924704BCCF08950E94B00AA598CF
S113033086E794E00C940D140895E3E8F4E0128643
S113034085E991E094878387E6E7F4E081E082879A
S113035080E091E0948783871092480410924704C8
S1130360E6E3F4E0168215828FE08783808782E0DB
S1130370818786E891E096878587E9E4F4E026E7BB
S113038034E08FEF9FEF9183808313823996E217D5
S1130390F307C9F76AE471E08FE00C94960A0895B4
S11303A0209152043091530482179307F1F0209165
S11303B05B0430915C048217930789F020916404F4
S11303C0309165048217930769F020916D04309190
S11303D06E0428173907E1F484E090E008C082E055
S11303E090E005C083E090E002C081E090E0FC0171
S11303F0EE0FFF1FEE0FFF1FEE0FFF1F8E0F9F1F4D
S1130400FC01E75BFB4F81E083834ADF81E00895D1
S113041080E008950F931F93CF93DF9300D000D013
S11304201F92CDB7DEB79091A204923021F128F447
S1130430992349F0913091F0E1C09330C9F194309F
S113044009F45AC0DBC0803109F0D8C01092A1046D
S11304508093900481E08093A204D0C09091900492
S1130460980F90939004823019F48093A204C6C02C
S11304701092A204C3C090919004980F909390049A
S1130480803121F483E08093A2040AC0E091A104A6
S113049091E09E0F9093A104F0E0EF56FB4F808310
S11304A08091A104803109F0A9C01092A204A6C0D1
S11304B090919004980F909390048031A1F4E0916E
S11304C0A10481E08E0F8093A104F0E0EF56FB4F6E
S11304D090E19083803119F41092A2048FC082E0DD
S11304E08093A2048BC0833021F484E08093A2041F
S11304F085C01092A20482C09091900489137CC09C
S11305008091A104893008F477C0809191048031EE
S113051009F072C08983E1E9F4E0818592859B83C7
S11305208A83838594859D838C8301811281C8018C
S11305308530E0E79E0729F465E0CE01019665DE8B
S11305405BC011230CF03FC020915204309153043E
S11305502F3F3F4FF1F020915B0430915C042F3F1B
S11305603F4F89F020916404309165042F3F3F4F41
S113057069F020916D0430916E042F3F3F4FE1F5F7
S113058044E050E008C042E050E005C043E050E0E1
S113059002C041E050E069E0649F9001659F300D26
S11305A01124F901E75BFB4F9183808385E082830B
S11305B01382D901A35BBB4FFE01319601900D92CA
S11305C08A95E1F719C02091490430914A042F3FDC
S11305D03F4F91F4E9E4F4E09183808385E08283E2
S11305E081E0838385E0FE013196ADE4B4E00190BF
S11305F00D928A95E1F754DE1092A2040F900F90A9
S11306000F900F900F90DF91CF911F910F9108954C
S1130610613099F018F06230F1F041C021E030E02F
S1130620082E02C0220F331F0A94E2F720959091FE
S1130630A30429232093A30432C021E030E0082E30
S113064002C0220F331F0A94E2F79091A304292BCE
S11306502093A30424C09091A304292F30E0082EF2
S113066002C0359527950A94E2F720FF0DC021E0DA
S113067030E0082E02C0220F331F0A94E2F72095BF
S113068092239093A3040BC021E030E0082E02C013
S1130690220F331F0A94E2F7922B9093A304813024
S11306A069F018F0823099F008958091A30480FFD6
S11306B002C0A59A01C0A5989D9A08958091A304AB
S11306C081FF02C0739A01C073986B9A0895809158
S11306D0A30482FF02C0749A01C074986C9A0895AE
S11306E0CF93DF93C82FD62F60E088E475D08111B3
S11306F00FC081E0A3D081110BC08C2F9FD081113A
S113070007C08D2F9BD0811103C08FD080E002C021
S11307108CD081E0DF91CF910895569A5E9860EA7B
S113072076E881E090E034C008951092A60460E871
S113073081E0D6CF08951F920F920FB60F92112425
S11307400BB60F922F933F934F935F936F937F93C7
S11307508F939F93AF93BF93EF93FF93E091A40480
S1130760F091A504309709F00995FF91EF91BF919D
S1130770AF919F918F917F916F915F914F913F9135
S11307802F910F900BBE0F900FBE0F901F901895D6
S11307909B01AC011092BD001092BA001092BB00F4
S11307A01092B9001092BC0060E072E18AE790E018
S11307B00E94DA14DA01C9014097A109B109B6957A
S11307C0A79597958795E8EBF0E08083908181E089
S11307D09B3008F080E0089594EA9093BC00ECEB21
S11307E0F0E090819923ECF79091B900987F9830CC
S11307F011F09031B1F4880F680F6093BB0084E866
S11308008093BC00ECEBF0E080818823ECF79091BE
S1130810B900987F983139F081E0903429F480E070
S1130820089581E0089580E0089584E98093BC00F0
S1130830ECEBF0E080818823ECF308958093BB0017
S113084084E88093BC00ECEBF0E080818823ECF733
S11308509091B900987F81E0983209F480E008957E
S113086025982D9A6A98729A089520988298559896
S11308709A986E9824986F9826985B9A539A5A98E7
S1130880529A8DE08A95F1F7000083B181707A9BCA
S113089002C0826001C08D7F4D9B02C0846001C094
S11308A08B7F929B02C0886001C0877F669B02C0D9
S11308B0806101C08F7E1C9B02C0806201C08F7D5D
S11308C0679B02C0806401C08F7B1E9B02C080684E
S11308D001C08F775A9A08956299FECFC6DF90E0DF
S11308E0089580FF02C0289A01C0289881FF02C0A1
S11308F08A9A01C08A9882FF02C05D9A01C05D98FD
S113090083FF02C0A29A01C0A29884FF02C0769A13
S113091001C0769885FF02C02C9A01C02C9886FFEE
S113092002C0779A01C07798882314F42E9A01C0E4
S11309302E98209A829A559A9A9A6E9A249A6F9A25
S1130940269A5A9A529A5B98539A5B9A0895CF932F
S1130950C82F1D99FECF8C2FC4DF8C2FCC0F990B81
S1130960CF91089594B380E2892784BB089585E0EC
S113097080933605089582E080933605089583E0D8
S113098080933605089580913605863021F483E0FE
S113099080933605089587EB94E00C9464140895CD
S11309A00F931F93CF93DF93EC0182E192E09F9327
S11309B08F930E9472150F80D885C02D88810F9067
S11309C00F90803209F04BC08A818F9389818F9375
S11309D085E292E09F938F930E947215E4ECF4E019
S11309E009811A8102831383148215821682178265
S11309F01086118689819A819387828789819A8159
S1130A0087D589819A81ACEAB4E02091B50430910C
S1130A10B60414963C932E93139720E32C931296CA
S1130A209C938E931197E5E2F5E01682158282E09D
S1130A308783808783E08187B387A28785E0848763
S1130A408FEB94E0968785877398CF01C3D584E0B4
S1130A50809336050F900F900F900F900CC01F924B
S1130A608F9381E492E09F938F930E9472150F906D
S1130A700F900F900F9081E0DF91CF911F910F9114
S1130A800895CF92DF92EF92FF920F931F93CF932B
S1130A90DF936C01DC011796ED91FC9118979EB1E0
S1130AA088E089278EB91A968C911A97818F1B96A4
S1130AB08C911B97828F1796CD91DC9118978A851C
S1130AC09B85892B09F4E6C083E692E09F938F937C
S1130AD00E94721589811F928F930CE712E01F9375
S1130AE00F930E9472158B858F938A858F938DE85F
S1130AF092E09F938F930E947215888D8F938F89B4
S1130B008F9381EA92E09F938F930E947215898D4F
S1130B101F928F9386EB92E09F938F930E9472159E
S1130B208A8D282F082E000C330B3F938F9381EC72
S1130B3092E09F938F930E94721589811F928F93E5
S1130B401F930F930E9472158B8D1F928F938DECC0
S1130B5092E09F938F930E9472158C8D1F928F93B6
S1130B6081EE92E09F938F930E947215EDB7FEB7CA
S1130B70B2960FB6F894FEBF0FBEEDBF88A18F9357
S1130B808F8D8F938E8D8F938D8D8F9385EF92E0C4
S1130B909F938F930E9472158CA18F938BA18F9337
S1130BA08AA18F9389A18F938CE093E09F938F9375
S1130BB00E94721588A58F938FA18F938EA18F9316
S1130BC08DA18F9380E293E09F938F930E9472157F
S1130BD08CA58F938BA58F938AA58F9389A58F93CB
S1130BE085E393E09F938F930E94721588A98F9356
S1130BF08FA58F938EA58F938DA58F938DE493E00E
S1130C009F938F930E94721589A91F928F9383E6F5
S1130C1093E09F938F930E9472158DB79EB782962F
S1130C200FB6F8949EBF0FBE8DBF8AA91F928F93F3
S1130C3087E793E09F938F930E9472158BE893E06C
S1130C409F938F930E9472158AA90F900F900F9013
S1130C500F900F900F908823A9F07E0193E3E90E83
S1130C60F11C00E010E0D7018D917D01082E000CED
S1130C70990B0E9485150F5F1F4F8AA990E00817F2
S1130C8019078CF383EB92E09F938F930E94721564
S1130C900F900F90F6018081918182DB882311F0FF
S1130CA081E0F6D781E0DF91CF911F910F91FF9002
S1130CB0EF90DF90CF900895CF93DF93EC01739A78
S1130CC08F8581110DC080910A05811114C0A598EA
S1130CD088E195E00E940D1481E080930A050BC021
S1130CE080910A05882339F0A59A88E195E00E944D
S1130CF0641410920A058889813041F48BE095E0F0
S1130D000E94641487E08093360507C080913605FD
S1130D10823019F085E080933605DF91CF910895F4
S1130D200F931F93CF93DF93009749F08C01C0E09A
S1130D30D0E0FBD26FDB21960C171D07D1F7DF91B2
S1130D40CF911F910F910895E8DC882331F089E950
S1130D5093E00E948A1580E00895E7DC882331F04F
S1130D6084EB93E00E948A1580E0089581E0089561
S1130D702F923F924F925F926F927F929F92AF9287
S1130D80BF92CF92DF92EF92FF920F931F93CF9374
S1130D90DF9300D000D01F92CDB7DEB70E94981326
S1130DA05FDD2FEF84E39CE0215080409040E1F729
S1130DB000C00000E7E3FFE084E092E093838283D5
S1130DC091838083AFEFB4E3ECE0A150B040E04006
S1130DD0E1F700C0000060E080E01ADCFFEF29E6E4
S1130DE088E1F15020408040E1F700C0000061E05C
S1130DF070E086E090E0BED9CE010196A5DF88239D
S1130E0009F4ABC10F2EF7EACF2EF4E0DF2EF02D5C
S1130E100F2EF5E0AF2EF0E7BF2EF02D0F2EF5E2EA
S1130E20EF2EF5E0FF2EF02D0F2EFEE12F2EF4E035
S1130E303F2EF02D04EC14E00F2EF5E44F2E512C30
S1130E40612C712CF02D0E949F1308D3E09136057C
S1130E508E2F90E08B309105B0F7FC01E057FF4FE7
S1130E600C94FC1499249394D8019C9211969C920E
S1130E70119785E012968C93129780E713968C93C2
S1130E80139714961C92149715961C921597169600
S1130E901C92169717961C92179718961C921897DF
S1130EA019961C9219971B96BC92AE921A9780E0E1
S1130EB091E0A1E0B1E0F80184879587A687B78720
S1130EC080E090E8A0E0B0E0808B918BA28BB38BA4
S1130ED080E890E0968B858B8FE0848B108E178A48
S1130EE0118E128E938E8CE0848F158E168E178E33
S1130EF010A211A212A213A214A215A216A217A242
S1130F0010A680E281AB83E182ABEAE0F4E0A7EFD4
S1130F10B4E001900D928A95E1F79D9AA59A6B9A97
S1130F20739A6C9A749AC501F3D280E890E0F7D270
S1130F308FE00E94B01281E00E94AC1261E475E07F
S1130F4081E0F4D260ED74E082E0F0D2E7EBF4E00B
S1130F5080E197E2A0E0B0E086839783A087B18721
S1130F60128683EC94E09487838710920A05E8E163
S1130F70F5E084EF91E0A0E0B0E086839783A0875A
S1130F80B187928682EB94E094878387CF010E9495
S1130F906414EBE0F5E088EE93E0A0E0B0E0868333
S1130FA09783A087B187128687EB94E09487838721
S1130FB0C4D99092360562E070E084E090E0DAD81B
S1130FC042CF60E080E090E0CFD4D80158969C9363
S1130FD08E9357970E945B15A0E0B0E0F801858FCF
S1130FE0968FA78FB0A362E070E084E090E0C2D84F
S1130FF0E4D8A0E0B0E0F80181A392A3A3A3B4A332
S113100041A652A663A674A684EA91E0A0E0B0E0EB
S113101085A796A7A7A7B0AB8091B1049091B2041D
S1131020A091B304B091B404AC01BD014F5F5F4F14
S11310306F4F7F4F4093B1045093B2046093B30455
S11310407093B40485A396A3A7A3B0A7D70116965B
S11310501C921E92159781E017968C9317971896F9
S11310608C93189783E019968C9319971B961C936D
S11310700E931A9786E41C968C931C97ECE5F6E085
S11310801E96FC93EE931D977398C701A3D284E038
S113109080933605D8CE0E945B159093B604809356
S11310A0B504D60114969C938E93139780E18C9388
S11310B01296BC92AE921197F7011682158268942B
S11310C0992491F89782908683E08187D386C2869B
S11310D085E084878BEB94E0968785877398C701B6
S11310E079D2909236058091B6048F938091B5049D
S11310F08F933F922F920E9472150F900F900F9032
S11311000F90A1CE87EB94E00E94641486E0809354
S1131110360599CE14D2811196CE2AD289E08093D5
S1131120360591CE9D98A5986B9873986C98749891
S113113060E177E280E090E063D08AE08093360556
S113114082CE19D29D9AA59A6B9A739A6C9A749AC4
S1131150A59883E08093360576CE8FEF9FEF0F90AE
S11311600F900F900F900F90DF91CF911F910F91DF
S1131170FF90EF90DF90CF90BF90AF909F907F90C3
S11311806F905F904F903F902F90089514BE0FB6CC
S1131190F894A89580916000886180936000109213
S11311A060000FBEE1E6F0E080E88083108278946E
S11311B001C0089510920E0F80E197E29093A90068
S11311C08093A800E1EAF0E088E080838081826077
S11311D08083E2E7F0E080818260808308951F923B
S11311E00F920FB60F9211248F9380910E0F8F5F81
S11311F080930E0F8F910F900FBE0F901F90189534
S1131200CF93DF93DC01CB01880F991FAA1FBB1F6B
S1131210880F991FAA1FBB1F880F991FAA1FBB1FE6
S1131220880F991FAA1FBB1FBC01CD01660F771F32
S1131230881F991F28EE33E040E050E00E94DA1442
S1131240DA01C901211531054105510509F45BC0D5
S11312507727652F542F432F282F10927000E6EB29
S1131260F0E08081806280831092B0001092B1001F
S11312701092B20080818F71E9F787E087BB809379
S1131280B100C3EBD0E06FEFA0E7B0E0E6EBF0E035
S113129037E001C020E0109237054115510511F0E7
S11312A068831BC0222311F0288317C0E6EBF0E00B
S11312B080818F71E9F7109270001092B10083B5AC
S11312C0826083BDE6EBF0E080818F71E9F7E6EBA5
S11312D0F0E080818F7D808316C08C9182608C9336
S11312E080818F71E9F733BF889513BE9FB7F89457
S11312F0809137059FBF882371F24115510551F242
S113130041505109C8CFDF91CF9108951F920F9298
S11313100FB60F9211248F9381E0809337058F913C
S11313200F900FBE0F901F9018954FB7F894EAE3F3
S1131330F5E02085318580819181BC016F5F7F4F0D
S113134071836083D901A80FB91F8C916081718169
S1131350248135816217730721F410923B051092A2
S11313603A05EAE3F5E026813781215031093783D4
S113137026834FBF08951F920F920FB60F92112428
S11313800BB60F928F93EF93FF9381E0809339050F
S1131390E9ECF0E080818F7D8083FF91EF918F9164
S11313A00F900BBE0F900FBE0F901F9018951F92B9
S11313B00F920FB60F9211240BB60F922F933F93F7
S11313C04F935F936F937F938F939F93AF93BF9349
S11313D0EF93FF938091C8002091CE008C7159F552
S11313E0EAE3F5E0468157818481958148175907DE
S11313F011F14085518582819381BC016F5F7F4FDC
S113140073836283DA01A80FB91F2C93228133817D
S1131410848195812817390721F410923D05109293
S11314203C05EAE3F5E086819781019697838683FC
S113143081E080933805FF91EF91BF91AF919F9127
S11314408F917F916F915F914F913F912F910F9069
S11314500BBE0F900FBE0F901F90189580914A05F8
S113146090914B05009769F120913905222349F1A8
S1131470E4E4F5E06085718520813181A9014F5F45
S11314805F4F51834083DB01A20FB31F2C91648112
S113149075814617570721F41092450510924405AB
S11314A0019790934B0580934A059FB7F894209336
S11314B0CE00E9ECF0E080818062808310923905EF
S11314C09FBF2FB7F894909138051092380540913A
S11314D04005509141052FBF992311F0CA0120CC3A
S11314E00895EFE0FFE0148215821182108217A2A2
S11314F016A2E5E1FFE085E39FE011921192E8175F
S1131500F907D9F762D67DD32CD15FD0AFC1089546
S11315109093100F80930F0F0C94C9120895909319
S1131520120F8093110F0C94B8120895E82FF0E075
S1131530EE0FFF1FEB5EF04F71836083089581E02F
S11315402091350F3091360F232B09F480E0089554
S1131550EFE0FFE086A197A1019697A386A30895E3
S1131560EFE0FFE086A197A1019797A386A30895D2
S11315700C94DF1208950C94EA1208958CD321D7A9
S11315804DC00895E0914E05F0914F053097D9F084
S1131590228133818217930789F405C02281338124
S11315A02817390759F4DC01AD57BF4F2C91278711
S11315B013962C91208B22E0248305C00190F081A6
S11315C0E02D309759F70FC1089510924F051092EE
S11315D04E050895FC011482178613821282AFE02F
S11315E0BFE096968D919C919797019697969C93C0
S11315F08E93969780914E0590914F05009739F4FC
S113160011821082F0934F05E0934E050895918363
S11316108083F0934F05E0934E0508950F931F9335
S1131620CF93DF93E0914E05F0914F05309709F485
S113163093C0EF018C81882321F0823009F466C0C5
S113164085C09AD08C01009721F482E08C838F8727
S113165083C09B838A8381E08C83F801E957FF4F21
S113166082EC9AE0918380833197898582FB882775
S113167080F980839985D8011B968C911B9790FBE8
S113168080F91B968C931B97998593FB992790F966
S113169090FB82F91B968C931B97EFE0FFE084810B
S11316A08F5F84831C968C931C97808191811E96F6
S11316B09C938E931D978D819E8150969C938E93BF
S11316C01F978885982F9F7051968C915197807F92
S11316D0892B51968C9351979F819295907F8F700F
S11316E0892B51968C93F801EF57FF4F4C8550E0AE
S11316F06A857B85808191810E946915F8019181B9
S11317008C85890F8183C80183D526C0EC17FD071A
S113171041F48081918190934F0580934E050AC0D6
S1131720FC01808191818C179D07D1F78881998173
S113173091838083EFE0FFE086A197A1019797A3AF
S113174086A3ED85FE85CE01099506C00990D88152
S1131750C02D209709F06ECFDF91CF911F910F918B
S11317600895E0E5F5E08AEA9AE01082E757FF4F32
S1131770E817F907D1F7089580915005882349F0B7
S1131780E9EDF5E081E090E0AC012081211122C077
S113179002C040E050E069E8649F9001659F300D0D
S11317A01124C901805B9A4FFC0111926A95E9F7F3
S11317B040E1FC014183EF57FF4F2E593A4F3183EB
S11317C02083EFE0FFE026A137A12F5F3F4F37A32F
S11317D026A308950196E757FF4F8A309105A1F695
S11317E080E090E00895FC011082EFE0FFE086A124
S11317F097A1019797A386A30895009741F0FC0150
S1131800E757FF4F8AE0EA3AF80718F012C0E0E51C
S1131810F5E08081882321F00FC0808181110FC001
S1131820E757FF4F8AE0EA3AF807B8F380E090E020
S1131830089580E090E008958E2F9F2F08958E2FB5
S11318409F2F0895FC01DC01AD57BF4F1C92AFE000
S1131850BFE014969C9114979F5F14969C931497E1
S113186094878D919C91968785870895ABEABAE019
S113187080E090E04FEF5FEF11965C934E93FC0194
S1131880EE0FFF1FEE0FFF1FEE0FFF1FE81BF90BFC
S1131890E655F54F20812E7F208314961C921497D1
S11318A0019617968436910539F708950F931F937F
S11318B0CF93DF93EBEAFAE020E030E0062F10E06C
S11318C04081518148175907B1F4D901AA0FBB1FB0
S11318D0AA0FBB1FAA0FBB1FA21BB30BA655B54F64
S11318E04C9146954170C42F40E0D42FC017D107C6
S11318F011F4CD0108C02F5F3F4F379624363105D0
S1131900F9F680E090E0DF91CF911F910F91089557
S1131910A0E0B0E0EAEAFAE0808180FD0DC08581B4
S1131920882381F0109739F015969C9115978917A3
S113193018F4DF0101C0DF0137968DE0E636F807C1
S113194059F7FD0180818D708063808380E88583F1
S1131950CF010895FC01808180FD05C08FEF9FEFCA
S11319609283818315820895A1DF009721F0FC0101
S11319708381948108958FEF9FEF089597DF0097F7
S113198009F0E8CF08950F931F93CF93DF93FC01E1
S11319900185128511232CF485859685081719076E
S11319A0E1F5858196810196C1F1EF0160E08585BD
S11319B096857CDFFC01892BA1F08F8198850196A7
S11319C0F9F420910F0F3091100F8F859889281703
S11319D03907B1F41483038380818F70806380831B
S11319E00AC096DFFC018D859E859283818389855B
S11319F09A8594838383CD57DF4F888186830DC076
S1131A008381948108171907B1F39681DE01AD57DC
S1131A10BF4F8C919817F0F2EECFDF91CF911F91C9
S1131A200F910895CF93DF93FC01878590898F3FB1
S1131A302FEF9207D9F1EF01638563FB662760F905
S1131A4035DFDC01892B91F18C9180FD2FC0FE01E3
S1131A50ED57FF4F8081811119C08C918F70806385
S1131A608C9315968C9115978F5F15968C938F3F59
S1131A70E9F4EFEAFAE02BE63DE0808186958F5F9A
S1131A8080833796E217F307C1F710C09C91892F22
S1131A9082958F70815F8F70282F2295207F9F7091
S1131AA0922B9C93811102C0CD0154DFDF91CF9121
S1131AB00895CF93DF93FC01878590898F3F2FEFA3
S1131AC0920729F48FEF9FEF908787830EC02385B9
S1131AD022FF03C09087878308C0EF01638563FBFF
S1131AE0662760F941DF98878F83DF91CF9108954E
S1131AF0AF92BF92CF92DF92EF92FF921F93CF9358
S1131B00DF93EC011B8513FB112710F9CF84D888D0
S1131B10612FC60129DF019659F0FE01E957FF4FF5
S1131B2011821082319782E08083CE0171D322C06A
S1131B30AD84BE8421DE7C010097D1F083DEF70101
S1131B4081818A5F8183E957FF4F11821082F701F7
S1131B50B08AA786EF57FF4F0190F081E02D81E016
S1131B608083B282A182D482C3821583C70150D3F9
S1131B70CE0139DEDF91CF911F91FF90EF90DF907E
S1131B80CF90BF90AF900895FC012185263049F491
S1131B900780F085E02D658183819481EFDE81E00B
S1131BA0089580E00895DC0119962C911997222359
S1131BB071F01796ED91FC9118972081222319F06A
S1131BC0213019F006C0B5C30895DECF089580E032
S1131BD0089580E00895BC01E8E7FDE022E73EE0D7
S1131BE040E051E09081992319F091509083452F62
S1131BF03596E217F307B1F7442311F0CB0164C61D
S1131C000895E8E7FDE082E79EE010823596E81744
S1131C10F907D9F7E6E6FDE084E690E0A0E0B0E05D
S1131C2086839783A087B18712868BEE9DE0948785
S1131C30838763ED7DE080E079CC0895CF93DF93D3
S1131C40DC01ED91FC91119721812838F1F4208178
S1131C502F7D2134D1F412962C912031B0F0EC0177
S1131C608BDD009791F020E2FC0120832A812183FF
S1131C702B81ED57FF4F20832C81319620834A819D
S1131C8050E068817981029624D7DF91CF9108953D
S1131C908093730D08952F923F924F925F926F92AB
S1131CA07F928F929F92AF92BF92CF92DF92EF92E8
S1131CB0FF920F931F93CF93DF93CDB7DEB72C978B
S1131CC00FB6F894DEBF0FBECDBF00E010E00F2EBC
S1131CD0F4E2BF2EF02D0F2EFFE0EF2EFFE0FF2EDB
S1131CE0F02D442443946894AA24A4F86894772497
S1131CF073F86894662462F8312C212C0F2EF5E1D8
S1131D005F2EF02DCC24C394D12CDAC1D8018C9150
S1131D10823209F405C118F4803241F0D1C1833212
S1131D2009F4C9C1843209F4C9C1CAC1F801B08235
S1131D308385982F9A7009F0C3C1258136812F3F7E
S1131D403F4F91F4D8011F968D919C915097F701C4
S1131D50208131812817390719F0019609F0B0C1A3
S1131D60E2E2D801EC93ACC1D8011F962D913C91CD
S1131D7050972F3F3F4F11F480FDA2C1F7012081FE
S1131D803181D8011D968D919C911E972817390792
S1131D9009F496C1C801F7DDE4E7FDE080E090E0D6
S1131DA0832C922C9C014481442309F474C0D801EF
S1131DB01D966D917C911E97408151816417750722
S1131DC009F06AC01C968C911C97F901EE0FFF1F55
S1131DD0EE0FFF1FE20FF31FEC58F24F9281981B96
S1131DE0983008F03EC0F901EE0FFF1FEE0FFF1F01
S1131DF0E20FF31FEC58F24F8381482F50E0092E75
S1131E0002C0559547950A94E2F740FF17C0F701C1
S1131E102081318117968D919C9118972817390745
S1131E2009F04EC11B966C911B9763FB662760F902
S1131E301F968D919C915097A1DD42C1F901EE0F3F
S1131E40FF1FEE0FFF1F2E0F3F1FF901EC58F24F3B
S1131E50960102C0220F331F9A95E2F7822B8383E7
S1131E6036C1F901EE0FFF1FEE0FFF1F2E0F3F1FAC
S1131E70F901EC58F24F82838381282F30E0919549
S1131E80A90102C0440F551F9A95E2F7CA01816067
S1131E90838354821CC14F01019635968233910588
S1131EA009F080CF8114910409F40AC1D8011D9668
S1131EB08D919C911E97F401918380831C968C9143
S1131EC082834382548286E69DE0FED400C1D7011A
S1131ED02D913C91F801878590892817390781F065
S1131EE0438542FD0BC0C801E1D1D7012D913C913E
S1131EF0F801878590892817390711F0019621F494
S1131F00E2E2D801EC93DCC0D80117968D919C9144
S1131F1018978217930709F0D3C0E3E2EC93D0C07B
S1131F201092730DD80151968C91519782958F70B0
S1131F30E82FF0E0EE0FFF1FEB5EF04F0190F08111
S1131F40E02D309709F460C01D962D913C911E97A9
S1131F503A8329831F964D915C9150975C834B8300
S1131F6051969C9151979F709D838E83AF57BF4F1D
S1131F708D919C9199878887B8016E5F7F4F861BEE
S1131F80970BD80111969C911197981B9A87AD577E
S1131F90BF4F8C918B8711968C918C87D8011B969F
S1131FA09C91692F637092FD02C080E001C080E2C1
S1131FB0862B93FD02C090E001C090E4892B4F3F33
S1131FC05F4F11F090E001C0962D892BD80119962E
S1131FD04D915C911A972417350711F090E001C0D8
S1131FE0972D892B8F83D80115962D913C911697A7
S1131FF02F3F3F4F11F090E001C09A2D892B8F8322
S1132000CE010196099501C080E0F801938590FF07
S113201080E0D80117962D913C9118972F3F3F4FA0
S113202069F4F70140815181D8011F962D913C91AB
S113203050974217530711F493FF842DF80125811B
S113204036812F3F3F4FA1F1D7012D913C912F3F76
S11320503F4F71F1882361F18FDB4C01009741F10F
S1132060F1DBF40181818D5F8183E957FF4F118298
S11320701082D8011B968C911B9786958170F40170
S1132080938580FB91F993871D968D919C911E9762
S1132090908B8787EF57FF4F0190F081E02D1082DE
S11320A08091730D82831C968C918183C401B0D07E
S11320B0D801BC9205C0C8011BDD02C0C80193DB76
S11320C0C8019BDB8C01892B09F020CE07C0F801E5
S11320D087819085019609F008CFF9CE2C960FB62A
S11320E0F894DEBF0FBECDBFDF91CF911F910F914A
S11320F0FF90EF90DF90CF90BF90AF909F908F9024
S11321007F906F905F904F903F902F900895EF9243
S1132110FF920F931F93CF937C0110E080E090E037
S113212001E0C3E113C0FC012081213179F4EC57B3
S1132130FF4F208131812150310931832083232BAA
S113214021F4FC01C083102F01C0102F56DB00972F
S113215051F7112311F0C701B7D3CF911F910F91FC
S1132160FF90EF900895EF92FF920F931F93CF93F8
S1132170DF937C0110E080E090E001E0D7E1C0E172
S113218016C0FC012081263191F4EC57FF4F2081C9
S113219031812150310931832083232B39F4FC010F
S11321A0D083ED57FF4FC083102F01C0102F25DBC4
S11321B0009739F7112311F0C70186D3DF91CF912E
S11321C01F910F91FF90EF9008951092890E109235
S11321D0880EEBE7FEE082E390E0A0E0B0E08683C7
S11321E09783A087B187128683EB90E194878387D6
S11321F0EEE6FEE08AE090E0A0E0B0E0868397831C
S1132200A087B187128687E890E194878387089531
S1132210CF93DF93EC01FC01EA57FF4F808181FFEC
S113222003C092E1988302C092E19883FE01ED57C6
S1132230FF4F108280FF05C02FEF3FEF3E832D83B9
S113224006C02091110F3091120F3E832D838570AB
S113225019F4CE012EDC04C08F85988998878F836A
S1132260EFE0FFE0808191819A87898785818F5F84
S113227085838C838F819885019669F481E498E83D
S11322809B838A8318D4CC57DF4F87709927019694
S11322909983888308C081E698E89B838A83CC5716
S11322A0DF4F19821882DF91CF9108950F931F9306
S11322B0CF93DF938C0160DAEC01892BA9F182E1E1
S11322C08883F80181818983FE01ED57FF4F1082D5
S11322D0F2D3FE01EC57FF4F877099270196918343
S11322E08083339611821082F801418150E0B80155
S11322F06E5F7F4FCE010296ECD381E498E89B8316
S11323008A838FEF9FEF98878F83F8018581968169
S11323109E838D83EFE0FFE0808191819A87898796
S113232085818F5F85838C83DF91CF911F910F917E
S11323300895CF93DF93FC0121852330D9F410C095
S1132340FC012081263189F43485298132130DC0A2
S113235027E120832A81EA57FF4F208381E00BC0C5
S1132360FC01C781D08580E090E047DA009741F70F
S113237080E001C080E0DF91CF910895E091880E64
S1132380F091890E813021F048F0823019F004C0B8
S113239080E205C081E203C081E001C080E0DF018A
S11323A0AD57BF4F8C9385E180831092890E1092B4
S11323B0880EEFE0FFE086A197A1019797A386A37B
S11323C008959F92AF92BF92CF92DF92EF92FF92C5
S11323D00F931F93CF93DF93C0E0D0E00F2EF4E16F
S11323E0AF2EF02D0FE01FE00F2EF7E1DF2EF02DC2
S11323F00F2EF6E19F2EF02D0F2EF5E1EF2EF12C8E
S1132400F02D0F2EF3E1CF2EF02D0F2EF1E1BF2E84
S1132410F02D60C088818331C1F018F4823139F025
S113242059C0853149F1873109F445C053C0FE01D3
S1132430EC57FF4F80819181892B29F0B8828EE679
S11324409EE042D247C0C88245C08091880E9091D8
S1132450890E892B09F03EC0D093890EC093880E53
S1132460A8826981CE010296BFD0F80186A197A106
S1132470019697A386A32EC0FE01ED57FF4F8081DE
S1132480811117C02D853E85F8018081918128171F
S1132490390769F48B8580FF0AC09882FE01EC57E6
S11324A0FF4FF182E0828BE79EE00ED213C0D88208
S11324B011C0D8820FC0CE01B5DAFE01E957FF4F33
S11324C00190F081E02D309719F4CE018CD902C02F
S11324D0CE010995CE0191D9EC01892B09F09ACF4F
S11324E0DF91CF911F910F91FF90EF90DF90CF90EC
S11324F0BF90AF909F90089593E090934201E1E4E0
S1132500F1E090819F719830E1F780934201E1E41A
S1132510F1E090819F718913FCCF089588E0ECDF8E
S11325208FEF80934F0180918A0E882311F086E10A
S1132530E3CF0895E9E3F1E0808181608083109224
S11325408A0E81E080930B0F88E0D6DFECE4F1E0A3
S1132550808180688083089580938A0EDFCF0895F8
S11325608F71E8E4F1E09081907E892B8083089557
S1132570CF93DF9300D0CDB7DEB79A83898380935E
S113258062018A81809363010F900F90DF91CF9154
S11325900895CF93DF9300D0CDB7DEB79A838983B4
S11325A0809360018A818093610199818A81890F76
S11325B080936D010F900F90DF91CF91089588E083
S11325C09BDFE9E3F1E080818260808382E0809395
S11325D00B0F0895E9E3F1E080818D7F80839EDF16
S11325E081E080930B0F08951F93CF93DF93182FEF
S11325F0D92FC62F89E180DF8FEF80934F0182E0CE
S11326008C0F80938001CC2371F0A12FBD2FC1507A
S11326106C2F70E06E577E4FE1E8F1E08D9181936D
S1132620E617F707D9F783E080930B0F82E08093D6
S11326304201DF91CF911F9108951F93CF93DF93B0
S113264000D000D01F92CDB7DEB780910B0F82303F
S113265009F465C080914F0183FF3EC0A0917B01C6
S11326606A2F70E0AB014F5F5F4F80E090E020E0A5
S1132670FC01E058FE4F3081FC01E557F14F3083F7
S11326802F5F822F90E08417950794F38BE89EE0E8
S11326909A838983A250AB83FB01E557F14F808174
S11326A08C83809147018A558D83CE010196C6DAC9
S11326B0E1E4F1E080818F718631E1F7EFE4F1E04C
S11326C0808188608083ECE4F1E080818F7780836F
S11326D080818068808323C080914F0186FF1FC062
S11326E0809141018F718931A9F4109142011295B1
S11326F01695177049F0133021F0153021F013E0CE
S113270003C011E001C012E009DF81E080930B0FE8
S1132710812F34DEEFE4F1E08081806480830F90C8
S11327200F900F900F900F90DF91CF911F9108950C
S11327300E94C6086DD0FEDE0C94710A08957DDFF8
S11327400E94BE0ACCC008950F931F93CF93DF93CA
S1132750EC0180910C0F90910D0F009709F445C086
S11327604E815F8168857985FC0102811381248112
S11327703581401751076207730760F0DC0117C009
S11327800281138124813581401751076207730741
S113279068F403C0FC01A0E0B0E0041B150B260B99
S11327A0370B02831383248335830AC0DF01401B64
S11327B0510B620B730BED91FC911197309701F75C
S11327C04A835B836C837D83109741F08D919C9148
S11327D0119799838883CD93DC9315C0998388835B
S11327E0D0930D0FC0930C0F0EC0198218828E81E6
S11327F09F81A885B9858A839B83AC83BD83D0934D
S11328000D0FC0930C0FDF91CF911F910F9108957D
S113281010920D0F10920C0F0895CF93DF93A09197
S11328200C0FB0910D0F109791F1A817B90751F53E
S11328300AC08E179F0729F5109731F02081318146
S11328402D933C9307C0FC012081318130930D0FFF
S113285020930C0F0190F081E02D3097C1F042815C
S1132860538164817581EC018A819B81AC81BD8136
S1132870840F951FA61FB71F82839383A483B583F8
S113288006C0DF01ED91FC911197309791F6DF912D
S1132890CF910895E0910C0FF0910D0F309771F0E6
S11328A0E817F90721F40CC08E179F0759F001901F
S11328B0F081E02D3097C1F780E0089580E008951D
S11328C081E0089581E00895CF93DF93EC01E2DF86
S11328D0811102C0CE0138DFDF91CF910895CF92EC
S11328E0DF92EF92FF92CF93DF9380910E0F8823B4
S11328F009F459C08FB7F894C0900E0F10920E0FC0
S11329008FBFD12CE12CF12CCC0CDD1CEE1CFF1C58
S1132910D701C601880F991FAA1FBB1F880F991FD3
S1132920AA1FBB1FC80ED91EEA1EFB1EC0910C0FA6
S1132930D0910D0F2097B9F18A819B81AC81BD8123
S1132940C816D906EA06FB0610F1C81AD90AEA0A1B
S1132950FB0A8881998190930D0F80930C0F8A85CF
S1132960813011F4CE01F0DEEB85FC85CE010995B2
S1132970C0910C0FD0910D0F2097A9F08A819B81F3
S1132980AC81BD81C816D906EA06FB06F0F68A8139
S11329909B81AC81BD818C199D09AE09BF098A83D5
S11329A09B83AC83BD83DF91CF91FF90EF90DF9049
S11329B0CF900895A1E21A2EAA1BBB1BFD010DC0E6
S11329C0AA1FBB1FEE1FFF1FA217B307E407F507DB
S11329D020F0A21BB30BE40BF50B661F771F881FB7
S11329E0991F1A9469F760957095809590959B014D
S11329F0AC01BD01CF010895EE0FFF1F0024001CA0
S1132A000BBE0790F691E02D0994A29FB001B39FED
S1132A10C001A39F700D811D1124911DB29F700DE3
S1132A20811D1124911D08958F929F92AF92BF92A0
S1132A30CF92DF92EF92FF92CF93DF93EC01688104
S1132A4079818A819B81611571058105910521F444
S1132A5064E279ED8BE597E02DE133EF41E050E05E
S1132A6036D349015A019B01AC01A7EAB1E44BD327
S1132A706B017C01ACEEB4EFA501940150D3DC01F1
S1132A80CB018C0D9D1DAE1DBF1DB7FF03C001976B
S1132A90A109B04888839983AA83BB839F77DF9178
S1132AA0CF91FF90EF90DF90CF90BF90AF909F9029
S1132AB08F900895B9CF80E092E0B6CFA0E0B0E067
S1132AC08093000290930102A0930202B093030248
S1132AD00895FB01DC0102C001900D924150504069
S1132AE0D8F70895CF93DF93CDB7DEB7AE014B5F30
S1132AF05F4FFA0161917191AF018091390F90910B
S1132B003A0F38D0DF91CF9108956091390F7091C9
S1132B103A0F43C20F931F93CF93DF93E091390F82
S1132B20F0913A0F238121FF1BC08C01D0E0C0E05B
S1132B30F80181918F016091390F70913A0FDB0197
S1132B401896ED91FC911997882331F00995892BFA
S1132B5079F3DFEFCFEFECCF8AE00995892B19F0F9
S1132B608FEF9FEF02C08D2F9C2FDF91CF911F918C
S1132B700F9108952F923F924F925F926F927F929E
S1132B808F929F92AF92BF92CF92DF92EF92FF9279
S1132B900F931F93CF93DF93CDB7DEB72B970FB669
S1132BA0F894DEBF0FBECDBF6C017B018A01FC012E
S1132BB017821682838181FFBFC1CE0101963C0139
S1132BC0F6019381F70193FD859193FF81917F0134
S1132BD0882309F4ADC1853239F493FD859193FFBF
S1132BE081917F01853221F4B60190E0D6D1E8CFFE
S1132BF0912C212C312CFFE1F315D8F08B3279F094
S1132C0038F4803279F08332A1F4232D20611DC081
S1132C108D3261F0803369F4232D216016C0832D39
S1132C208260382EE32DE4603E2E2AC0F32DF86036
S1132C301DC037FC2DC020ED280F2A3040F08E3205
S1132C40B9F436FC75C1232D2064322E19C036FE2A
S1132C5006C08AE0989E200D1124922E11C0EAE04D
S1132C602E9E200D1124222EF32DF0623F2E08C03B
S1132C708C3621F4832D8068382E02C0883641F4C6
S1132C80F70193FD859193FF81917F018111B3CF6A
S1132C90982F9F7D9554933028F40C5F1F4F9FE32A
S1132CA099830DC0833631F0833771F0833509F091
S1132CB055C020C0F801808189830E5F1F4F88248E
S1132CC08394912C530112C02801F2E04F0E511C41
S1132CD0F801A080B18036FE03C0692D70E002C007
S1132CE06FEF7FEFC5014ED14C018201F32DFF77C9
S1132CF03F2E15C0280122E0420E511CF801A0808D
S1132D00B18036FE03C0692D70E002C06FEF7FEF23
S1132D10C5012DD14C01F32DF0683F2E820133FC07
S1132D2019C0822D90E088169906A0F4B60180E2BD
S1132D3090E033D12A94F5CFF50137FC859137FE25
S1132D4081915F01B60190E028D121102A9421E0FD
S1132D50821A91088114910479F7E1C0843611F044
S1132D60893639F5F80137FE07C0608171818281A7
S1132D7093810C5F1F4F08C060817181072E000C86
S1132D80880B990B0E5F1F4FF32DFF763F2E97FF95
S1132D9009C090958095709561957F4F8F4F9F4F97
S1132DA0F0683F2E2AE030E0A30133D1882E861844
S1132DB044C0853731F4232D2F7EB22E2AE030E033
S1132DC025C0932D997FB92E8F36C1F018F488351C
S1132DD079F0AEC0803719F0883721F0A9C0E92F07
S1132DE0E061BE2EB4FE0DC0FB2DF460BF2E09C001
S1132DF034FE0AC0292F2660B22E06C028E030E037
S1132E0005C020E130E002C020E132E0F801B7FE65
S1132E1007C060817181828193810C5F1F4F06C05E
S1132E206081718180E090E00E5F1F4FA301F1D0BB
S1132E30882E8618FB2DFF773F2E36FE0DC0232DDE
S1132E402E7FA22E891458F434FE0BC032FC09C024
S1132E50832D8E7EA82E05C0B82CA32C03C0B82CBD
S1132E6001C0B92CA4FE0FC0FE01E80DF11D808144
S1132E70803321F49A2D997EA92E09C0A2FE06C0A2
S1132E80B394B39404C08A2D867809F0B394A3FC58
S1132E9010C0A0FE06C0B21480F4280C922C9B181B
S1132EA00DC0B21458F4B60180E290E076D0B39429
S1132EB0F8CFB21418F42B1802C0982C212CA4FEBD
S1132EC00FC0B60180E390E068D0A2FE16C0A1FC5A
S1132ED003C088E790E002C088E590E0B6010CC02A
S1132EE08A2D867851F0A1FE02C08BE201C080E2F7
S1132EF0A7FC8DE2B60190E050D0891430F4B601FD
S1132F0080E390E04AD09A94F8CF8A94F301E80DD4
S1132F10F11D8081B60190E040D08110F6CF2220CF
S1132F2009F44ECEB60180E290E037D02A94F7CF70
S1132F30F6018681978102C08FEF9FEF2B960FB623
S1132F40F894DEBF0FBECDBFDF91CF911F910F91DB
S1132F50FF90EF90DF90CF90BF90AF909F908F90B5
S1132F607F906F905F904F903F902F900895FC0159
S1132F700590615070400110D8F7809590958E0FA0
S1132F809F1F0895FC016150704001900110D8F713
S1132F90809590958E0F9F1F08950F931F93CF9345
S1132FA0DF93FB01238121FD03C08FEF9FEF2CC032
S1132FB022FF16C046815781248135814217530769
S1132FC044F4A081B1819D012F5F3F4F3183208361
S1132FD08C93268137812F5F3F4F3783268314C01C
S1132FE08B01EC01FB010084F185E02D0995892B0F
S1132FF0E1F6D80116968D919C9117970196179634
S11330009C938E931697CE01DF91CF911F910F91D0
S11330100895FA01AA27283051F1203181F1E8946A
S11330206F936E7F6E5F7F4F8F4F9F4FAF4FB1E0B7
S11330303ED0B4E03CD0670F781F891F9A1FA11DB2
S1133040680F791F8A1F911DA11D6A0F711D811DB3
S1133050911DA11D20D009F468943F912AE0269F78
S113306011243019305D3193DEF6CF010895462FD7
S11330704770405D4193B3E00FD0C9F7F6CF462FB8
S11330804F70405D4A3318F0495D31FD4052419321
S113309002D0A9F7EACFB4E0A695979587957795DE
S11330A06795BA95C9F700976105710508959B0165
S11330B0AC010A2E06945795479537952795BA95EE
S11330C0C9F7620F731F841F951FA01D0895052E55
S11330D097FB16F400940FD057FD05D06BDC07FC6A
S11330E002D046F408C050954095309521953F4F45
S11330F04F4F5F4F089590958095709561957F4FE0
S11331008F4F9F4F089581DCA59F900DB49F900D24
S1133110A49F800D911D11240895B7FFF4CFF3DF10
S10D3120821B930B0895F894FFCF6F
S113312A010000000000000300000000A7046C0472
S113313A000041646472657373206D65737361671B
S113314A65200A0D004164647265737320726573A5
S113315A706F6E736520726376642C202578200D57
S113316A00556E6B6E6F776E20416464726573737B
S113317A204D6573736167653A20202578202F6E88
S113318A2F72002D2D2D2D2D2D2D2D2D2D2D2D2D47
S113319A2D2D2D2D2D2D2D2D2D0A0D004E6F6465EF
S11331AA20547970653A202564200A0D0053686F0B
S11331BA727420616464723A2030782558200A0DAA
S11331CA00506172656E7420616464723A203078CA
S11331DA2558200A0D004C51493A202564200A0D2D
S11331EA00525353493A202564200A0D0053656E50
S11331FA736F727320547970653A202564200A0D1E
S113320A0053656E736F72732053697A653A202589
S113321A64200A0D0053656E736F727320426174E1
S113322A746572793A202564200A0D0053656E7319
S113323A6F72732054656D703A202564200A0D005C
S113324A53656E736F7273204C696768743A2025EC
S113325A64200A0D0053656E736F7273204D6F6993
S113326A73747572653A202564200A0D0053656EDD
S113327A736F7273205765696768743A20256420EE
S113328A0A0D0043617074696F6E20547970653A4F
S113329A202564200A0D0043617074696F6E2053FF
S11332AA697A653A202564200A0D004361707469BD
S11332BA6F6E20546578743A0054574920696E69D0
S11332CA7469616C697A6174696F6E206661696C8C
S11332DA65642E00544D5031303220696E69746928
S11332EA616C697A6174696F6E206661696C656480
S11332FA2E004661696C656420746F207374617270
S113330A74206D6561737572656D656E742E0054F3
S113331A656D70657261747572653A2025632564FA
S113332A2E2530326420430D0A0053535920536D1D
S113333A61727420666C30776572706F74004144F0
S113334A44525F7265712C206E6F646549443D2551
S109335A78200A0D0000BA
S9030000FC
