:1000000099C00000B6C00000B4C00000B2C000003B
:10001000B0C00000AEC00000ACC00000AAC000002C
:10002000A8C00000A6C00000A4C00000A2C000003C
:10003000A0C000009EC000009CC000009AC000004C
:1000400098C0000096C0000094C0000092C000005C
:1000500090C000008EC000008CC000008AC000006C
:1000600088C0000086C0000084C0000082C000007C
:1000700080C000007EC000007CC000007AC000008C
:1000800078C0000076C0000074C0000072C000009C
:1000900070C000006EC000006CC000006AC00000AC
:1000A00068C0000066C0000064C0000062C00000BC
:1000B00060C000005EC000005CC000005AC00000CC
:1000C00058C0000056C0000054C0000052C00000DC
:1000D00050C000004EC000004CC000004AC00000EC
:1000E00048C0000046C0000044C0000042C00000FC
:1000F00040C000003EC000003CC000003AC000000C
:1001000038C0000036C0000034C0000032C000001B
:1001100030C000002EC000002CC000002AC000002B
:1001200028C0000026C0000024C0000022C000003B
:1001300020C0000011241FBECFEFD1E8DEBFCDBF2D
:1001400000E00CBF12E0A0E0B2E0ECE1F4E000E07F
:100150000BBF02C007900D92A83EB107D9F723E06C
:10016000A8EEB2E001C01D92A830B207E1F78BD033
:1001700053C146CF9C0140E050E060E271EA87E065
:1001800090E0DCD0215031093093CD002093CC0099
:1001900088E18093C90008959091C80095FFFCCF35
:1001A0008093CE0008958091C8008823E4F7809161
:1001B000CE000895CF93DF93EC0102C0EDDF2196CE
:1001C00088818111FBCF8DE0E7DF8AE0E5DF80E009
:1001D000E3DFDF91CF9108958130910579F408C074
:1001E000FC01E851FD4F21E4280F2083019602C055
:1001F00080E090E08A3191059CF30895029779F4AC
:1002000008C0FC01E851FD4F21E6280F208301962C
:1002100002C080E090E08A3191059CF308958DE062
:1002200092E0CAC00895CF93DF938130910581F4A5
:1002300009C0FE01E851FD4F8081AEDF80E2ACDFF6
:10024000219602C0C0E0D0E0CA31D10594F314C0B9
:10025000029779F409C0FE01E851FD4F80819CDFCF
:1002600080E29ADF219702C0C9E1D0E0DD239CF74C
:1002700003C08BE192E09EDFDF91CF9108958AE287
:1002800092E098CF08951F93CF93DF93CDB7DEB759
:100290002D970FB6F894DEBF0FBECDBF80E096E974
:1002A00069DF8DE0E0E0F2E0DE01119601900D9251
:1002B0008A95E1F710E002C06FDF1F5FE1E0F0E038
:1002C000EC0FFD1FE10FF11D80818111F5CF82E35D
:1002D00092E070DF83E592E06DDF81E792E06ADF14
:1002E00083E992E067DF8AEA92E064DF5CDF182F3F
:1002F00053DF113369F482E090E06EDF88EB92E027
:1003000059DF81E090E08FDF89E292E053DFEECFAA
:10031000123311F4B4DFEACF103321F08CEC92E009
:1003200049DFE4CF80E090E02D960FB6F894DEBF71
:100330000FBECDBFDF91CF911F910895052E97FB82
:1003400016F400940FD057FD05D014D007FC02D04E
:1003500046F408C050954095309521953F4F4F4F3A
:100360005F4F089590958095709561957F4F8F4F61
:100370009F4F0895A1E21A2EAA1BBB1BFD010DC0C1
:10038000AA1FBB1FEE1FFF1FA217B307E407F50745
:1003900020F0A21BB30BE40BF50B661F771F881F21
:1003A000991F1A9469F760957095809590959B01B7
:1003B000AC01BD01CF0108950F931F93CF93DF933D
:1003C000E0910403F0910503238121FF1BC08C0100
:1003D000D0E0C0E0F80181918F0160910403709139
:1003E0000503DB011896ED91FC911997882331F0F4
:1003F0001995892B79F3DFEFCFEFECCF8AE01995D0
:10040000892B19F08FEF9FEF02C08D2F9C2FDF916A
:0C041000CF911F910F910895F894FFCF39
:10041C0048656C6C6F20554152540D0A0050524F78
:10042C004752414D204552524F520050524F475265
:10043C00414D204552524F520A001B5B324A1B5B06
:10044C00480057656C636F6D6520746F20696E741E
:10045C006572616374697665207465726D696E612D
:10046C006C210043686F6F73652061206E756D623F
:10047C00657220666F7220726573706F6E73653A69
:10048C000031202E2E2E2E2E2E205072696E7420AE
:10049C006C6F7765726361736520616C7068616203
:1004AC0065740032202E2E2E2E2E2E20436C65616C
:1004BC007220636F6E736F6C650030202E2E2E2EA3
:1004CC002E2E2045786974004C6F776572636173CA
:1004DC006520416C7068616265743A00496E7661A2
:1004EC006C6964206F7074696F6E2E205472792061
:0804FC00616761696E2E0000CA
:00000001FF
