S00C00004C4142322E7372656317
S11300005BC1000078C1000076C1000074C100002B
S113001072C1000070C100008CC200006CC10000FD
S11300206AC1000068C1000066C1000064C100002C
S113003062C1000060C100005EC100005CC100003C
S11300405AC100005CC2000056C1000054C1000047
S113005052C1000050C100004EC100004CC100005C
S11300604AC1000048C1000046C1000044C100006C
S113007042C1000040C100003EC100003CC100007C
S11300803AC1000038C1000036C1000034C100008C
S113009032C1000030C100002EC100002CC100009C
S11300A02AC1000028C1000026C1000024C10000AC
S11300B022C1000020C100001EC100001CC10000BC
S11300C01AC1000018C1000016C1000014C10000CC
S11300D012C1000010C100000EC100000CC10000DC
S11300E00AC1000008C1000006C1000004C10000EC
S11300F002C1000000C10000FEC00000FCC00000FE
S1130100FAC00000F8C00000F6C00000F4C000000F
S1130110F2C00000F0C00000EEC00000ECC000001F
S1130120EAC00000E8C00000E6C00000E4C000002F
S1130130E2C0000078037B038203890390039703E2
S11301409E03A503B303BA03EB03EB03EB03EB0337
S1130150EB03EB03EB03EB03EB03EB03EB03EB032B
S1130160EB03EB03EB03EB03EB03EB03EB03EB031B
S1130170EB03EB03EB03EB03EB03EB03EB03EB030B
S1130180EB03EB03EB03EB03EB03EB03EB03EB03FB
S1130190EB03EB03EB03BF03C503EB03EB03EB033D
S11301A0EB03EB03EB03EB03EB03EB03EB03EB03DB
S11301B0EB03EB03EB03EB03EB03EB03CA0300409A
S11301C07A10F35A00A0724E18090010A5D4E80062
S11301D000E87648170000E40B54020000CA9A3B7A
S11301E0000000E1F5050000809698000000404200
S11301F00F000000A086010000001027000000008E
S1130200E803000000006400000000000A00000091
S113021000000100000000002C76D888DC674F083D
S113022023DFC1DFAE59E1B1B796E5E3E453C63A43
S1130230E651997696E8E6C28426EB898C9B62EDBA
S1130240407C6FFCEFBC9C9F40F2BAA56FA5F49074
S1130250055A2AF75C936B6CF9676DC11BFCE0E4EB
S11302600D47FEF520E6B500D0ED902E0300943541
S113027077050080841E080000204E0A000000C894
S11302800C333333330F986E12831141EF8D2114E5
S1130290893BE65516CFFEE6DB18D1844B381BF7B5
S11302A07C1D901DA4BBE424203284725E22810054
S11302B0C9F124ECA1E53D2711241FBECFEFD1E8FD
S11302C0DEBFCDBF00E00CBF15E0A0E0B2E0E2E489
S11302D0F0E100E00BBF02C007900D92A436B10715
S11302E0D9F725E0A4E6B5E001C01D92A536B20712
S11302F0E1F7A9D1A4C684CE9C0140E050E060E2BD
S113030071EA87E090E097D3215031093093CD0012
S11303102093CC0088E18093C90008959091C8008F
S113032095FFFCCF8093CE0008958091C800882368
S1130330E4F78091CE000895CF93DF93EC0102C0DF
S1130340EDDF219688818111FBCFDF91CF91089554
S1130350CF93DF93EC0102C0E1DF21968881811104
S1130360FBCF8DE0DBDF8AE0D9DF80E0D7DFDF91F0
S1130370CF91089584EA8093BC008091BC008823C7
S1130380E4F7089584E98093BC0008958093BB004A
S113039084E88093BC008091BC008823E4F708952E
S11303A084EC8093BC008091BC008823E4F78091A6
S11303B0BB00089584E88093BC008091BC0088232E
S11303C0E4F78091BB0008958091B900887F089577
S11303D0CF93DF9300D01F92CDB7DEB7CBDF86E992
S11303E0D5DFF2DF883119F08DE092E0A5DF80E0FF
S11303F0CDDFEADF883219F088E192E09DDFC2DFC9
S1130400B9DFE2DF883019F083E292E095DF87E913
S1130410BDDFDADF803419F08EE292E08DDFC0DFD9
S11304208983D2DF803519F089E392E085DFC2DF6A
S11304308A83CADF883519F084E492E07DDFA2DF85
S1130440898190E0982F88272A81822B9C838B8333
S11304506B817C81072E000C880B990BC6D120E0A0
S113046030E040E85BE320D20F900F900F900F90A4
S1130470DF91CF910895CF93DF93F894A0E8B0E093
S11304801C92E1E8F0E01082CFE6D0E0188290936D
S11304908900809388008081886080838081856062
S11304A080838881826088838C9180648C93789423
S11304B0DF91CF910895CF93DF93F894E0EBF0E0D0
S11304C01082C1EBD0E01882109270002FEF829F4F
S11304D0C001112464E670E09BD26093B300808174
S11304E0836080838881886088838881856088832D
S11304F08081806880837894DF91CF9108951F92E2
S11305000F920FB60F9211248F939F9395B180E2AF
S1130510892785B99F918F910F900FBE0F901F90DF
S113052018951092810008951092B10010927000F5
S113053008951F920F920FB60F9211248F9381E0AA
S1130540809364058F910F900FBE0F901F901895A4
S113055081E692E0FDDE82E892E0FADE89E992E04B
S1130560F7DE81EB92E0F4DE88EC92E0F1DE80EEDF
S113057092E0EEDE87EF92E0EBDE8FE093E0E8DEE0
S113058080E393E0E5DE8EE493E0E2DE8DE693E043
S1130590DFDE8BE893E0DCDE8AEA93E0D9DE85ECEB
S11305A093E0D6CE0895CF93DF93C0E0D0E004C0AB
S11305B08DEE93E0CDDE2196CE31D105CCF3DF91E3
S11305C0CF910895CF93DF93CDB7DEB72A970FB6B7
S11305D0F894DEBF0FBECDBF4AE050E0BE016F5FAE
S11305E07F4FA2D284ED93E0A7DECE010196A4DE74
S11305F08BEE93E0A1DE2A960FB6F894DEBF0FBE11
S1130600CDBFDF91CF9108950F931F93CF93DF93C5
S1130610DFDE062F172FD82FC92F20E030E0A901E5
S1130620DED0811107C08EEE93E092DE00E010E090
S1130630D0E8CFEB602F712F8D2F9C2FDF91CF91BE
S11306401F910F910895CF93DF93CDB7DEB76797CE
S11306500FB6F894DEBF0FBECDBF80E096E94CDE46
S113066084B1806484B98DB18F7D8DB9EAE6F0E000
S113067080818860808380818B7F80838DB380625A
S11306808DBB78948DE0E0E0F2E0DE0111960190FC
S11306900D928A95E1F710E002C040DE1F5FE1E0B1
S11306A0F0E0EC0FFD1FE10FF11D80818111F5CF0A
S11306B084B1806684B98DB188608DB949DFF12C2D
S11306C034DE182F87E094E043DE812F27DE8DE0AF
S11306D025DE8AE023DE812F90E0FC01F097E534EB
S11306E0F10508F078C08827E656FF4F8F4FBFC149
S11306F05ADF2EDFE5CF86E194E02ADE85B18F7DD7
S113070085B9DECF88E294E023DE85B1806285B9C5
S1130710D7CF8BE394E01CDE85B18F7B85B9D0CF36
S11307208DE494E015DE85B1806485B9C9CF80E697
S113073094E00EDE8EB1877F8EB9C2CF82E794E05B
S113074007DE8EB188608EB9BBCF85E894E000DE09
S1130750809164058823E1F38F2D90E033DFF394D7
S113076010926405ADCF80EA94E0F2DD80EA97E070
S113077082DEA6CF88EB94E0EBDDD3DEA1CF81ED62
S113078094E0E6DD82E397DE9BCF8DEE94E0E0DD3E
S1130790CBDE96CF8AE095E0DBDD36DF4B015C01F2
S11307A020E030E040E85FEB1AD0882309F488CFDA
S11307B08E01025F1F4F22E030E044E050E0C501AB
S11307C0B40193D18DE295E0B7DDC801B5DD8BE3CB
S11307D095E0B2DD75CF80E495E0BADD71CF40D00D
S11307E008F481E00895E89409C097FB3EF49095DD
S11307F08095709561957F4F8F4F9F4F9923A9F0F6
S1130800F92F96E9BB279395F69587957795679584
S1130810B795F111F8CFFAF4BB0F11F460FF1BC0C8
S11308206F5F7F4F8F4F9F4F16C0882311F096E95B
S113083011C0772321F09EE8872F762F05C0662309
S113084071F096E8862F70E060E02AF09A95660FC2
S1130850771F881FDAF7880F9695879597F908957B
S1130860990F0008550FAA0BE0E8FEEF16161706BD
S1130870E807F907C0F012161306E407F50798F025
S1130880621B730B840B950B39F40A2661F0232B3E
S1130890242B252B21F408950A2609F4A140A695BA
S11308A08FEF811D811D08950BD078C069D028F089
S11308B06ED018F0952309F05AC05FC01124A2C06D
S11308C07ED0A0F3959FD1F3950F50E0551F629F02
S11308D0F001729FBB27F00DB11D639FAA27F00D95
S11308E0B11DAA1F649F6627B00DA11D661F829FBC
S11308F02227B00DA11D621F739FB00DA11D621FA1
S1130900839FA00D611D221F749F3327A00D611DBD
S1130910231F849F600D211D822F762F6A2F11249F
S11309209F5750408AF0E1F088234AF0EE0FFF1FF2
S1130930BB1F661F771F881F91505040A9F79E3F29
S1130940510570F014C05EC05F3FECF3983EDCF3D9
S1130950869577956795B795F795E7959F5FC1F766
S1130960FE2B880F911D9695879597F9089597F911
S11309709F6780E870E060E008959FEF80EC089541
S113098000240A941616170618060906089500246A
S11309900A9412161306140605060895092E0394E4
S11309A0000C11F4882352F0BB0F40F4BF2B11F458
S11309B060FF04C06F5F7F4F8F4F9F4F089557FDB7
S11309C09058440F551F59F05F3F71F04795880FB9
S11309D097FB991F61F09F3F79F087950895121650
S11309E013061406551FF2CF4695F1DF08C01616FC
S11309F017061806991FF1CF8695710561050894AD
S1130A000895E894BB2766277727CB0197F90895C3
S1130A1097FB072E16F4009406D077FD08D02FD04C
S1130A2007FC05D03EF4909581959F4F08957095ED
S1130A3061957F4F0895052E97FB16F400940FD00F
S1130A4057FD05D030D007FC02D046F408C05095BD
S1130A504095309521953F4F4F4F5F4F08959095A6
S1130A608095709561957F4F8F4F9F4F0895EE0F3E
S1130A70FF1F881F8BBF0790F691E02D1994AA1BC6
S1130A80BB1B51E107C0AA1FBB1FA617B70710F075
S1130A90A61BB70B881F991F5A95A9F780959095A7
S1130AA0BC01CD010895A1E21A2EAA1BBB1BFD01B6
S1130AB00DC0AA1FBB1FEE1FFF1FA217B307E40739
S1130AC0F50720F0A21BB30BE40BF50B661F771F91
S1130AD0881F991F1A9469F7609570958095909571
S1130AE09B01AC01BD01CF010895EF920F931F93B9
S1130AF0CF93DF93E80147FD02C034E001C034E145
S1130B00042E000C550B57FF03C051954195510914
S1130B10E32E022F242FAE0134D0CE01DF91CF91EA
S1130B201F910F91EF9008954532510518F442300A
S1130B3008F004C0FB011082CB010895BB274A30A2
S1130B4031F4992322F4BDE2909581959F4F01C021
S1130B50BB27FB015527AA27880F991FAA1FA41793
S1130B6010F0A41B83955051B9F7A05DAA3308F087
S1130B70A95DA193009779F7B111B1931192CB01BB
S1130B804EC28F929F92AF92BF92CF92DF92EF921A
S1130B90FF920F931F93CF93DF93CDB7DEB72997BF
S1130BA00FB6F894DEBF0FBECDBF6A01122FB02E70
S1130BB02BE3201720F0FF24F394F00E02C02CE363
S1130BC0F22E0F2D27E0AE014F5F5F4F50D1BC01D5
S1130BD04981842F8970813031F0E1FC06C0E0FE48
S1130BE006C090E205C09DE203C09BE201C090E014
S1130BF05E2D507143FF3CC0911102C083E001C0DF
S1130C0084E0811718F4212F281B01C020E0511122
S1130C100BC0F601822F30E2882319F03193815002
S1130C20FBCFC20ED11C20E0992329F0D6019C935E
S1130C30F60131966F01C6010396E2FE0AC03EE456
S1130C40D6013C9341E411964C93119712963C9330
S1130C5006C03EE6F601308341E641833283FC015F
S1130C60322F40E2332309F442C041933150FACF8A
S1130C7042FF44C0911102C083E001C084E08117A7
S1130C8018F4212F281B01C020E051110BC0F601DC
S1130C90822F30E2882319F031938150FBCFC20EAA
S1130CA0D11C20E0992329F0D6019C93F6013196BA
S1130CB06F01C6010396E2FE0BC039E4D6013C93F2
S1130CC03EE411963C93119736E412963C9307C088
S1130CD039E6F60130833EE6318336E63283FC01A1
S1130CE0322F40E2332319F041933150FBCFFC0102
S1130CF0E20FF11D10828EEF9FEFA6C021E030E0DD
S1130D00911102C020E030E0161617061CF4FB0116
S1130D10319602C0E1E0F0E02E0F3F1FBB2021F02E
S1130D20EB2DF0E0319602C0E0E0F0E02E0F3F1F23
S1130D30E12FF0E02E173F071CF4121B212F01C0F6
S1130D4020E08E2D887159F4F601822F30E2882339
S1130D5019F031938150FBCFC20ED11C20E09923AE
S1130D6029F0D6019C93F60131966F0151110BC005
S1130D70F601822F90E3882319F091938150FBCFE1
S1130D80C20ED11C20E00F2D060F9A81342F307132
S1130D9044FF03C0913309F40150101624F40930C0
S1130DA018F008E001C001E0AB0177FF02C040E0A9
S1130DB050E0FB01E41BF50BA1E0B0E0AC0FBD1F5C
S1130DC0EA0FFB1F8EE2A82E4B01801A91080B2D0F
S1130DD010E01195019511094F3FBFEF5B0721F416
S1130DE0D601AC9211966D01641775072CF0841628
S1130DF0950614F4818101C080E341505109319674
S1130E00D60111967D014017510724F0D6018C9329
S1130E106701E2CF6417750739F4963320F49533EC
S1130E2019F4311101C081E3F6018083F701822FA7
S1130E3090E2882319F091938150FBCFF701E20FE0
S1130E40F11D108280E090E029960FB6F894DEBF81
S1130E500FBECDBFDF91CF911F910F91FF90EF9007
S1130E60DF90CF90BF90AF909F908F9008952830DF
S1130E7008F027E03327DA01990F311D87FD9160CF
S1130E8000966105710539F432602E5F3D9330E3BD
S1130E902A95E1F708959F3F30F080387105610588
S1130EA009F03C5F3C5F3D93913008F08068911DF0
S1130EB0DF93CF931F930F93FF92EF92192F987F95
S1130EC09695E92F96959695E90FFF27E85EFD4FD5
S1130ED099273327EE24FF24A701E70105900894FE
S1130EE0079428F4360FE71EF81E491F511D660F9C
S1130EF0771F881F991F0694A1F70590079428F47B
S1130F00E70EF81E491F561FC11D770F881F991F32
S1130F10661F0694A1F70590079428F4F80E491F5C
S1130F20561FC71FD11D880F991F661F771F069470
S1130F30A1F70590079420F4490F561FC71FD81F27
S1130F40990F661F771F881F0694A9F7849110953F
S1130F50177041F0D695C79557954795F794E79440
S1130F601A95C1F7EEEBF1E068941590159135915F
S1130F706591959105907FE27395E118F10A430B11
S1130F80560BC90BD009C0F7E10CF11E431F561FC5
S1130F90C91FD01D7EF4703311F48A95E6CFE8940E
S1130FA0015030F0080F0AF40027021708F4202F2C
S1130FB02395022F7A3328F079E37D932A95E9F774
S1130FC010C07D932A9589F6069497956795379571
S1130FD017951794E118F10A430B560BC90BD00966
S1130FE098F023957E9173957A3308F070E37C939F
S1130FF02013B8F77E9170617D9330F0839571E38F
S11310007D9370E32A95E1F71124EF90FF900F91FF
S11310101F91CF91DF91992787FD90950895DC0169
S1131020FC01672F71917723E1F7329704C07C911B
S11310306D9370836291AE17BF07C8F30895F89457
S1051040FFCFDC
S113104248656C6C6F20554152540D0A004572720A
S11310526F722031380A0D004572726F7220323875
S11310620A0D004572726F722030380A0D00457203
S1131072726F722034300A0D004572726F7220351D
S1131082300A0D004572726F722035380A0D005015
S1131092524F4752414D204552524F520025632030
S11310A20057656C636F6D6520746F20696E74659B
S11310B272616374697665207465726D696E616CC0
S11310C2210031202E2E2E2E2E2E207475726E208B
S11310D26F6E206C656420310032202E2E2E2E2E4F
S11310E22E207475726E206F6666206C65642031E2
S11310F20033202E2E2E2E2E2E207475726E206F0B
S11311026E206C656420320034202E2E2E2E2E2E5C
S1131112207475726E206F6666206C6564203200DE
S113112235202E2E2E2E2E2E207475726E206F6E6A
S1131132206C656420330036202E2E2E2E2E2E2077
S11311427475726E206F6666206C65642033003796
S1131152202E2E2E2E2E2E20656E74657220627520
S113116274746F6E20696E707574206D6F6465009F
S113117238202E2E2E2E2E2E207475726E206F6E17
S1131182206C656420626C696E6B696E670039203D
S11311922E2E2E2E2E2E207475726E206F666620D1
S11311A26C656420626C696E6B696E670061202EE7
S11311B22E2E2E2E2E207475726E206F6E20505796
S11311C24D20626C696E6B696E670062202E2E2E52
S11311D22E2E2E207475726E204F46462050574D87
S11311E220626C696E6B696E670074202E2E2E2E3F
S11311F22E2E20636865636B2074656D7065726161
S1131202747572650030202E2E2E2E2E2E20636CC5
S113121265617200427574746F6E207072657373C7
S1131222656420636F756E743A20000D0A0054657C
S11312326D70657261747572652072656164206592
S113124272726F720A0D00596F757220696E707531
S1131252742069733A005475726E696E67204C4546
S1131262442031206F6E21005475726E696E6720BE
S11312724C45442031206F666621005475726E69B4
S11312826E67204C45442032206F6E2100547572E3
S11312926E696E67204C45442032206F66662100D9
S11312A25475726E696E67204C45442033206F6E0C
S11312B221005475726E696E67204C4544203320B8
S11312C26F66662100456E7465726564206275748A
S11312D2746F6E20696E707574206D6F64653A0068
S11312E25475726E6564206F6E206C656420626C46
S11312F2696E6B696E6721005475726E6564206F46
S11313026666206C656420626C696E6B696E672127
S1131312005475726E6564206F6E2050574D206CB8
S1131322656420626C696E6B696E67210054757224
S11313326E6564206F66662050574D206C6564208C
S1131342626C696E6B696E67210052656164696ED5
S1131352672074656D70657261747572652066725A
S11313626F6D2073656E736F722E2E2E0054656D31
S113137270657261747572653A200020430A0D002B
S1131382496E76616C696420696E7075742C207084
S11313926C656173652063686F6F73652061676153
S10713A2696E2E003E
S9030000FC
