S00C00004C4142322E7372656317
S11300005BC1000079C1000077C1000075C1000028
S113001073C1000071C1000031C300006DC1000054
S11300206BC1000069C1000067C1000065C1000028
S113003063C1000061C100005FC100005DC1000038
S11300405BC10000A6C2000057C1000055C10000FA
S113005053C10000B0C200004FC100004DC10000F8
S11300604BC1000049C1000047C1000045C1000068
S113007043C1000041C100003FC100003DC1000078
S11300803BC1000039C1000037C1000035C1000088
S113009033C1000031C100002FC100002DC1000098
S11300A02BC1000029C1000027C1000025C10000A8
S11300B023C1000021C100001FC100001DC10000B8
S11300C01BC1000019C1000017C1000015C10000C8
S11300D013C1000011C100000FC100000DC10000D8
S11300E00BC1000009C1000007C1000005C10000E8
S11300F003C1000001C10000FFC00000FDC00000FA
S1130100FBC00000F9C00000F7C00000F5C000000B
S1130110F3C00000F1C00000EFC00000EDC000001B
S1130120EBC00000E9C00000E7C00000E5C000002B
S1130130E3C00000200423042A04310438043F04EB
S113014046044D045B046204C304C304C304C3042F
S1130150C304C304C304C304C304C304C304C30463
S1130160C304C304C304C304C304C304C304C30453
S1130170C304C304C304C304C304C304C304C30443
S1130180C304C304C304C304C304C304C304C30433
S1130190C304C304C30467046D04C304C304C304D5
S11301A0C304C304C304C304C304C3049304C30443
S11301B0C304C304C304C304C304C30472040040DB
S11301C07A10F35A00A0724E18090010A5D4E80062
S11301D000E87648170000E40B54020000CA9A3B7A
S11301E0000000E1F5050000809698000000404200
S11301F00F000000A086010000001027000000008E
S1130200E803000000006400000000000A00000091
S113021000000100000000002C76D888DC674F083D
S113022023DFC1DFAE59E1B1B796E5E3E453C63A43
S1130230E651997696E8E6C28426EB898C9B62EDBA
S1130240407C6FFCEFBC9C9F40F2BAA56FA5F49074
S1130250055A2AF75C936B6CF9676DC11BFCE0E4EB
S11302600D47FEF520E6B500D0ED902E0300943541
S113027077050080841E080000204E0A000000C894
S11302800C333333330F986E12831141EF8D2114E5
S1130290893BE65516CFFEE6DB18D1844B381BF7B5
S11302A07C1D901DA4BBE424203284725E22810054
S11302B0C9F124ECA1E53D2711241FBECFEFD1E8FD
S11302C0DEBFCDBF00E00CBF15E0A0E0B2E0E8EA7D
S11302D0F7E100E00BBF02C007900D92A83EB10702
S11302E0D9F726E0A8EEB5E001C01D92A432B2070A
S11302F0E1F751D20C94D20B83CE9C0140E050E044
S113030060E271EA87E090E06ED4215031093093C5
S1130310CD002093CC0088E18093C900089590918A
S1130320C80095FFFCCF8093CE0008958091C8004B
S11303308823E4F78091CE000895CF93DF93EC01F6
S113034002C0EDDF219688818111FBCFDF91CF912F
S11303500895CF93DF93EC0102C0E1DF21968881F9
S11303608111FBCF8DE0DBDF8AE0D9DF80E0D7DFCE
S1130370DF91CF91089584EA8093BC008091BC0002
S11303808823E4F7089584E98093BC00089580935A
S1130390BB0084E88093BC008091BC008823E4F710
S11303A0089584EC8093BC008091BC008823E4F71A
S11303B08091BB00089584E88093BC008091BC00C8
S11303C08823E4F78091BB0008958091B900887F69
S11303D00895CF93DF9300D01F92CDB7DEB7CBDF64
S11303E086E9D5DFF2DF883119F08DE092E0A5DFF0
S11303F080E0CDDFEADF883219F088E192E09DDF0A
S1130400C2DFB9DFE2DF883019F083E292E095DFE2
S113041087E9BDDFDADF803419F08EE292E08DDF08
S1130420C0DF8983D2DF803519F089E392E085DF6C
S1130430C2DF8A83CADF883519F084E492E07DDF65
S1130440A2DF898190E0982F88272A81822B9C83C0
S11304508B836B817C81072E000C880B990B9DD2BA
S113046020E030E040E85BE3F7D20F900F900F906C
S11304700F90DF91CF910895ACE7B0E01C92EAE7CA
S1130480F0E0108210927B00109277009081892B0B
S113049080838C9190E4699FB0011124682B6C9344
S11304A080818068808380917B008823E4F7809139
S11304B07B0085FFFCCF089590917A00992314F571
S11304C0ECE7F0E09081907E9083ABE7B0E09C9104
S11304D0977F9C939081892B8083EAE7F0E0808169
S11304E08064808380917A0086FDFCCF209178001F
S11304F030917900EAE7F0E0808180618083822F87
S1130500932F089580E090E00895CF93DF93F894BB
S1130510A0E8B0E01C92E1E8F0E01082CFE6D0E081
S113052018829093890080938800808188608083FA
S11305308081856080838881826088838C918064D7
S11305408C937894DF91CF910895CF93DF93F894AF
S1130550E0EBF0E01082C1EBD0E018821092700062
S11305602FEF829FC001112464E670E029D36093C9
S1130570B3008081836080838881886088838881D8
S1130580856088838081806880837894DF91CF91AF
S113059008951F920F920FB60F9211248F939F9379
S11305A095B180E2892785B99F918F910F900FBEF5
S11305B00F901F9018951F920F920FB60F9211244F
S11305C00BB60F922F933F934F935F936F937F9349
S11305D08F939F93AF93BF93EF93FF938091E8051D
S11305E08823D1F083E068DF8093EA059093EB05DC
S11305F09F938F938FE492E09F938F9386E096E08E
S11306009F938F9396D386E096E097DE0F900F909A
S11306100F900F900F900F90FF91EF91BF91AF91BA
S11306209F918F917F916F915F914F913F912F9106
S11306300F900BBE0F900FBE0F901F901895F8945B
S113064014BC15BCEEE6F0E0108285B5856085BD6E
S113065084B5806484BD80818260808384E387BDA7
S11306607894089515BC10926E000895109281003C
S113067008951092B1001092700008951F920F9285
S11306800FB60F9211248F9381E08093E9058F9127
S11306900F900FBE0F901F9018958AE792E059DED5
S11306A08BE992E056DE82EB92E053DE8AEC92E034
S11306B050DE81EE92E04DDE89EF92E04ADE80E189
S11306C093E047DE88E293E044DE89E493E041DE90
S11306D087E693E03EDE86E893E03BDE84EA93E03F
S11306E038DE83EC93E035DE80EE93E032DE81E0A9
S11306F094E02FCE0895CF93DF93C0E0D0E004C000
S113070087E692E026DE2196CE31D105CCF3DF9147
S1130710CF910895CF93DF93CDB7DEB72A970FB665
S1130720F894DEBF0FBECDBF4AE050E0BE016F5F5C
S11307307F4FD2D280E194E000DECE010196FDDD50
S113074085E692E0FADD2A960FB6F894DEBF0FBE76
S1130750CDBFDF91CF9108950F931F93CF93DF9374
S113076038DE062F172FD82FC92F20E030E0A9013B
S11307700ED1811107C087E294E0EBDD00E010E0C8
S1130780D0E8CFEB602F712F8D2F9C2FDF91CF916D
S11307901F910F910895CF93DF93CDB7DEB767977D
S11307A00FB6F894DEBF0FBECDBF80E096E9A5DD9D
S11307B084B1806484B98DB18F7D8DB9EAE6F0E0AF
S11307C080818860808380818B7F80838DB3806209
S11307D08DBB78948DE0E0E0F2E0DE0111960190AB
S11307E00D928A95E1F710E002C099DD1F5FE1E008
S11307F0F0E0EC0FFD1FE10FF11D80818111F5CFB9
S113080084B1806684B98DB188608DB946DFF12CDE
S11308108DDD182F80E494E09CDD812F80DD8DE058
S11308207EDD8AE07CDD812F90E0FC01F097E534E9
S1130830F10508F0A8C08827E656FF4F8F4FEFC197
S11308405ADF2BDFE5CF8FE494E083DD85B18F7D24
S113085085B9DECF81E694E07CDD85B1806285B91F
S1130860D7CF84E794E075DD85B18F7B85B9D0CF90
S113087086E894E06EDD85B1806485B9C9CF89E9E5
S113088094E067DD8EB1877F8EB9C2CF8BEA94E0A6
S113089060DD8EB188608EB9BBCF8EEB94E059DDFC
S11308A08091E9058823E1F38F2D90E033DFF39401
S11308B01092E905ADCF89ED94E04BDD80EA97E035
S11308C024DEA6CF81EF94E044DDD0DEA1CF8AE020
S11308D095E03FDD82E339DE9BCF86E295E039DDAA
S11308E0C8DE96CF83E495E034DD36DF4B015C014E
S11308F020E030E040E85FEB4AD0882309F488CF59
S11309008E01025F1F4F22E030E044E050E0C50159
S1130910B401C3D186E695E010DDC8010EDD84E79D
S113092095E00BDD75CF8091E805811125C089E73D
S113093095E00FDD81E08093E80581DE62E084E0EC
S11309409BDD83E0B9DD8093EA059093EB059F93EB
S11309508F938FE492E09F938F9386E096E09F932A
S11309608F93E7D186E096E0E8DC0F900F900F902C
S11309700F900F900F904CCF8FE995E0EADC109226
S1130980E80570DE45CF83EC95E0E3DC41CF40D051
S113099008F481E00895E89409C097FB3EF490952B
S11309A08095709561957F4F8F4F9F4F9923A9F044
S11309B0F92F96E9BB279395F695879577956795D3
S11309C0B795F111F8CFFAF4BB0F11F460FF1BC017
S11309D06F5F7F4F8F4F9F4F16C0882311F096E9AA
S11309E011C0772321F09EE8872F762F05C0662358
S11309F071F096E8862F70E060E02AF09A95660F11
S1130A00771F881FDAF7880F9695879597F90895C9
S1130A10990F0008550FAA0BE0E8FEEF161617060B
S1130A20E807F907C0F012161306E407F50798F073
S1130A30621B730B840B950B39F40A2661F0232B8C
S1130A40242B252B21F408950A2609F4A140A69508
S1130A508FEF811D811D08950BD078C069D028F0D7
S1130A606ED018F0952309F05AC05FC01124A2C0BB
S1130A707ED0A0F3959FD1F3950F50E0551F629F50
S1130A80F001729FBB27F00DB11D639FAA27F00DE3
S1130A90B11DAA1F649F6627B00DA11D661F829F0A
S1130AA02227B00DA11D621F739FB00DA11D621FEF
S1130AB0839FA00D611D221F749F3327A00D611D0C
S1130AC0231F849F600D211D822F762F6A2F1124EE
S1130AD09F5750408AF0E1F088234AF0EE0FFF1F41
S1130AE0BB1F661F771F881F91505040A9F79E3F78
S1130AF0510570F014C05EC05F3FECF3983EDCF328
S1130B00869577956795B795F795E7959F5FC1F7B4
S1130B10FE2B880F911D9695879597F9089597F95F
S1130B209F6780E870E060E008959FEF80EC08958F
S1130B3000240A94161617061806090608950024B8
S1130B400A9412161306140605060895092E039432
S1130B50000C11F4882352F0BB0F40F4BF2B11F4A6
S1130B6060FF04C06F5F7F4F8F4F9F4F089557FD05
S1130B709058440F551F59F05F3F71F04795880F07
S1130B8097FB991F61F09F3F79F08795089512169E
S1130B9013061406551FF2CF4695F1DF08C016164A
S1130BA017061806991FF1CF8695710561050894FB
S1130BB00895E894BB2766277727CB0197F9089512
S1130BC097FB072E16F4009406D077FD08D02FD09B
S1130BD007FC05D03EF4909581959F4F089570953C
S1130BE061957F4F0895052E97FB16F400940FD05E
S1130BF057FD05D030D007FC02D046F408C050950C
S1130C004095309521953F4F4F4F5F4F08959095F4
S1130C108095709561957F4F8F4F9F4F0895EE0F8C
S1130C20FF1F881F8BBF0790F691E02D1994AA1B14
S1130C30BB1B51E107C0AA1FBB1FA617B70710F0C3
S1130C40A61BB70B881F991F5A95A9F780959095F5
S1130C50BC01CD010895A1E21A2EAA1BBB1BFD0104
S1130C600DC0AA1FBB1FEE1FFF1FA217B307E40787
S1130C70F50720F0A21BB30BE40BF50B661F771FDF
S1130C80881F991F1A9469F76095709580959095BF
S1130C909B01AC01BD01CF010895EF920F931F9307
S1130CA0CF93DF93E80147FD02C034E001C034E193
S1130CB0042E000C550B57FF03C051954195510963
S1130CC0E32E022F242FAE015FD2CE01DF91CF910C
S1130CD01F910F91EF9008954532510518F4423059
S1130CE008F004C0FB011082CB010895BB274A30F1
S1130CF031F4992322F4BDE2909581959F4F01C070
S1130D00BB27FB015527AA27880F991FAA1FA417E1
S1130D1010F0A41B83955051B9F7A05DAA3308F0D5
S1130D20A95DA193009779F7B111B1931192CB0109
S1130D308FC40F931F93CF93DF93CDB7DEB72E9756
S1130D400FB6F894DEBF0FBECDBF0E891F8986E0B3
S1130D508C831A8309838FEF9FE79E838D83AE0173
S1130D60465E5F4F688D798DCE01019610D0EF817C
S1130D70F885E00FF11F10822E960FB6F894DEBFAF
S1130D800FBECDBFDF91CF911F910F9108952F9288
S1130D903F924F925F926F927F928F929F92AF9207
S1130DA0BF92CF92DF92EF92FF920F931F93CF9354
S1130DB0DF93CDB7DEB72B970FB6F894DEBF0FBE27
S1130DC0CDBF6C017B018A01FC01178216828381ED
S1130DD081FFBFC1CE0101963C01F6019381F70169
S1130DE093FD859193FF81917F01882309F4ADC11F
S1130DF0853239F493FD859193FF81917F0185328A
S1130E0021F4B60190E034D4E8CF912C212C312C7C
S1130E10FFE1F315D8F08B3279F038F4803279F0B1
S1130E208332A1F4232D20611DC08D3261F0803303
S1130E3069F4232D216016C0832D8260382EE32DA2
S1130E40E4603E2E2AC0F32DF8601DC037FC2DC08F
S1130E5020ED280F2A3040F08E32B9F436FC75C1EB
S1130E60232D2064322E19C036FE06C08AE0989ED7
S1130E70200D1124922E11C0EAE02E9E200D112483
S1130E80222EF32DF0623F2E08C08C3621F4832DE0
S1130E908068382E02C0883641F4F70193FD8591AD
S1130EA093FF81917F018111B3CF982F9F7D95543A
S1130EB0933028F40C5F1F4F9FE399830DC0833652
S1130EC031F0833771F0833509F055C020C0F80143
S1130ED0808189830E5F1F4F88248394912C530152
S1130EE012C02801F2E04F0E511CF801A080B1801D
S1130EF036FE03C0692D70E002C06FEF7FEFC501BD
S1130F009CD34C018201F32DFF773F2E15C028019D
S1130F1022E0420E511CF801A080B18036FE03C0CD
S1130F20692D70E002C06FEF7FEFC5017BD34C01E8
S1130F30F32DF0683F2E820133FC19C0822D90E01E
S1130F4088169906A0F4B60180E290E091D32A9421
S1130F50F5CFF50137FC859137FE81915F01B6012C
S1130F6090E086D321102A9421E0821A91088114FA
S1130F70910479F7E1C0843611F0893639F5F80126
S1130F8037FE07C060817181828193810C5F1F4F9E
S1130F9008C060817181072E000C880B990B0E5FCD
S1130FA01F4FF32DFF763F2E97FF09C09095809534
S1130FB0709561957F4F8F4F9F4FF0683F2E2AE0C9
S1130FC030E0A30191D3882E861844C0853731F4CC
S1130FD0232D2F7EB22E2AE030E025C0932D997F59
S1130FE0B92E8F36C1F018F4883579F0AEC0803749
S1130FF019F0883721F0A9C0E92FE061BE2EB4FEB4
S11310000DC0FB2DF460BF2E09C034FE0AC0292F89
S11310102660B22E06C028E030E005C020E130E0B2
S113102002C020E132E0F801B7FE07C0608171819F
S1131030828193810C5F1F4F06C06081718180E0C3
S113104090E00E5F1F4FA3014FD3882E8618FB2D0F
S1131050FF773F2E36FE0DC0232D2E7FA22E89143E
S113106058F434FE0BC032FC09C0832D8E7EA82EAA
S113107005C0B82CA32C03C0B82C01C0B92CA4FE05
S11310800FC0FE01E80DF11D8081803321F49A2DFB
S1131090997EA92E09C0A2FE06C0B394B39404C0DD
S11310A08A2D867809F0B394A3FC10C0A0FE06C074
S11310B0B21480F4280C922C9B180DC0B21458F46E
S11310C0B60180E290E0D4D2B394F8CFB21418F40D
S11310D02B1802C0982C212CA4FE0FC0B60180E36B
S11310E090E0C6D2A2FE16C0A1FC03C088E790E03F
S11310F002C088E590E0B6010CC08A2D867851F0D4
S1131100A1FE02C08BE201C080E2A7FC8DE2B60121
S113111090E0AED2891430F4B60180E390E0A8D216
S11311209A94F8CF8A94F301E80DF11D8081B601F9
S113113090E09ED28110F6CF222009F44ECEB60163
S113114080E290E095D22A94F7CFF60186819781C8
S113115002C08FEF9FEF2B960FB6F894DEBF0FBE41
S1131160CDBFDF91CF911F910F91FF90EF90DF9052
S1131170CF90BF90AF909F908F907F906F905F9033
S11311804F903F902F9008958F929F92AF92BF926D
S1131190CF92DF92EF92FF920F931F93CF93DF933F
S11311A0CDB7DEB729970FB6F894DEBF0FBECDBF1B
S11311B06A01122FB02E2BE3201720F0FF24F394A2
S11311C0F00E02C02CE3F22E0F2D27E0AE014F5F8C
S11311D05F4F50D1BC014981842F8970813031F037
S11311E0E1FC06C0E0FE06C090E205C09DE203C03B
S11311F09BE201C090E05E2D507143FF3CC0911111
S113120002C083E001C084E0811718F4212F281B59
S113121001C020E051110BC0F601822F30E2882377
S113122019F031938150FBCFC20ED11C20E09923D9
S113123029F0D6019C93F60131966F01C6010396FD
S1131240E2FE0AC03EE4D6013C9341E411964C937D
S1131250119712963C9306C03EE6F601308341E6B0
S113126041833283FC01322F40E2332309F442C02C
S113127041933150FACF42FF44C0911102C083E040
S113128001C084E0811718F4212F281B01C020E03D
S113129051110BC0F601822F30E2882319F03193EB
S11312A08150FBCFC20ED11C20E0992329F0D60136
S11312B09C93F60131966F01C6010396E2FE0BC0C2
S11312C039E4D6013C933EE411963C93119736E4FD
S11312D012963C9307C039E6F60130833EE631832B
S11312E036E63283FC01322F40E2332319F0419376
S11312F03150FBCFFC01E20FF11D10828EEF9FEF06
S1131300A6C021E030E0911102C020E030E01616C2
S113131017061CF4FB01319602C0E1E0F0E02E0F49
S11313203F1FBB2021F0EB2DF0E0319602C0E0E03E
S1131330F0E02E0F3F1FE12FF0E02E173F071CF4C3
S1131340121B212F01C020E08E2D887159F4F60163
S1131350822F30E2882319F031938150FBCFC20EE3
S1131360D11C20E0992329F0D6019C93F6013196F3
S11313706F0151110BC0F601822F90E3882319F0FD
S113138091938150FBCFC20ED11C20E00F2D060F8C
S11313909A81342F307144FF03C0913309F4015012
S11313A0101624F4093018F008E001C001E0AB0184
S11313B077FF02C040E050E0FB01E41BF50BA1E025
S11313C0B0E0AC0FBD1FEA0FFB1F8EE2A82E4B014D
S11313D0801A91080B2D10E01195019511094F3FCA
S11313E0BFEF5B0721F4D601AC9211966D0164172F
S11313F075072CF08416950614F4818101C080E3EE
S1131400415051093196D60111967D01401751077B
S113141024F0D6018C936701E2CF6417750739F481
S1131420963320F4953319F4311101C081E3F601A8
S11314308083F701822F90E2882319F091938150E1
S1131440FBCFF701E20FF11D108280E090E02996B6
S11314500FB6F894DEBF0FBECDBFDF91CF911F91C1
S11314600F91FF90EF90DF90CF90BF90AF909F903F
S11314708F900895283008F027E03327DA01990F78
S1131480311D87FD916000966105710539F4326064
S11314902E5F3D9330E32A95E1F708959F3F30F0A6
S11314A080387105610509F03C5F3C5F3D939130E4
S11314B008F08068911DDF93CF931F930F93FF92E1
S11314C0EF92192F987F9695E92F96959695E90FA7
S11314D0FF27E85EFD4F99273327EE24FF24A70159
S11314E0E70105900894079428F4360FE71EF81EC8
S11314F0491F511D660F771F881F991F0694A1F776
S11315000590079428F4E70EF81E491F561FC11DC5
S1131510770F881F991F661F0694A1F705900794FB
S113152028F4F80E491F561FC71FD11D880F991F95
S1131530661F771F0694A1F70590079420F4490FBE
S1131540561FC71FD81F990F661F771F881F069441
S1131550A9F784911095177041F0D695C7955795C2
S11315604795F794E7941A95C1F7EEEBF1E0689488
S11315701590159135916591959105907FE273953C
S1131580E118F10A430B560BC90BD009C0F7E10C63
S1131590F11E431F561FC91FD01D7EF4703311F472
S11315A08A95E6CFE894015030F0080F0AF400273A
S11315B0021708F4202F2395022F7A3328F079E3B9
S11315C07D932A95E9F710C07D932A9589F60694B0
S11315D097956795379517951794E118F10A430B7A
S11315E0560BC90BD00998F023957E9173957A33E5
S11315F008F070E37C932013B8F77E9170617D93BB
S113160030F0839571E37D9370E32A95E1F711241B
S1131610EF90FF900F911F91CF91DF91992787FD54
S113162090950895FC010590615070400110D8F721
S1131630809590958E0F9F1F0895FC016150704016
S113164001900110D8F7809590958E0F9F1F0895F3
S1131650DC01FC01672F71917723E1F7329704C015
S11316607C916D9370836291AE17BF07C8F30895A0
S11316700F931F93CF93DF93FB01238121FD03C0BD
S11316808FEF9FEF2CC022FF16C046815781248123
S113169035814217530744F4A081B1819D012F5F26
S11316A03F4F318320838C93268137812F5F3F4FB7
S11316B03783268314C08B01EC01FB010084F18580
S11316C0E02D1995892BE1F6D80116968D919C9100
S11316D01797019617969C938E931697CE01DF91D8
S11316E0CF911F910F910895FA01AA27283051F143
S11316F0203181F1E8946F936E7F6E5F7F4F8F4F3F
S11317009F4FAF4FB1E03ED0B4E03CD0670F781F9D
S1131710891F9A1FA11D680F791F8A1F911DA11D82
S11317206A0F711D811D911DA11D20D009F46894BB
S11317303F912AE0269F11243019305D3193DEF663
S1131740CF010895462F4770405D4193B3E00FD019
S1131750C9F7F6CF462F4F70405D4A3318F0495D04
S113176031FD4052419302D0A9F7EACFB4E0A695E7
S11317709795879577956795BA95C9F70097610509
S1131780710508959B01AC010A2E0694579547955F
S113179037952795BA95C9F7620F731F841F951F54
S10B17A0A01D0895F894FFCF89
S11317A848656C6C6F20554152540D0A004572729D
S11317B86F722031380A0D004572726F7220323808
S11317C80A0D004572726F722030380A0D00457296
S11317D8726F722034300A0D004572726F722035B0
S11317E8300A0D004572726F722035380A0D004CAC
S11317F86967687420696E74656E736974792069A1
S1131808733A2025640D0A0050524F4752414D2027
S11318184552524F52002563200057656C636F6D23
S11318286520746F20696E74657261637469766586
S1131838207465726D696E616C210031202E2E2E24
S11318482E2E2E207475726E206F6E206C656420A7
S1131858310032202E2E2E2E2E2E207475726E20DC
S11318686F6666206C656420310033202E2E2E2E80
S11318782E2E207475726E206F6E206C6564203273
S11318880034202E2E2E2E2E2E207475726E206F6C
S11318986666206C656420320035202E2E2E2E2E8E
S11318A82E207475726E206F6E206C656420330070
S11318B836202E2E2E2E2E2E207475726E206F66D4
S11318C866206C656420330037202E2E2E2E2E2E93
S11318D820656E74657220627574746F6E20696E0B
S11318E8707574206D6F64650038202E2E2E2E2E90
S11318F82E207475726E206F6E206C656420626C85
S1131908696E6B696E670039202E2E2E2E2E2E20BE
S11319187475726E206F6666206C656420626C69EB
S11319286E6B696E670061202E2E2E2E2E2E20746B
S113193875726E206F6E2050574D20626C696E6B05
S1131948696E670062202E2E2E2E2E2E207475723C
S11319586E204F46462050574D20626C696E6B6965
S11319686E670074202E2E2E2E2E2E20646973701E
S11319786C61792074656D70657261747572650047
S11319886C202E2E2E2E2E2E20646973706C617995
S1131998206C6967687420696E74656E73697479FC
S11319A80030202E2E2E2E2E2E20636C65617200A0
S11319B8427574746F6E2070726573736564206306
S11319C86F756E743A200054656D70657261747534
S11319D872652072656164206572726F720A0D0007
S11319E8596F757220696E7075742069733A005462
S11319F875726E696E67204C45442031206F6E21E4
S1131A08005475726E696E67204C45442031206F0E
S1131A18666621005475726E696E67204C454420D1
S1131A2832206F6E21005475726E696E67204C45C2
S1131A38442032206F666621005475726E696E67A1
S1131A48204C45442033206F6E21005475726E6912
S1131A586E67204C45442033206F66662100456E2E
S1131A68746572656420627574746F6E20696E7033
S1131A787574206D6F64653A005475726E656420E0
S1131A886F6E204C454420626C696E6B696E6721E9
S1131A98005475726E6564206F6666204C45442058
S1131AA8626C696E6B696E6721005475726E656449
S1131AB8206F6E2050574D204C454420626C696E4F
S1131AC86B696E6721005475726E6564206F666673
S1131AD82050574D204C454420626C696E6B696EEA
S1131AE867210052656164696E672074656D70656D
S1131AF87261747572652066726F6D2073656E739A
S1131B086F722E2E2E0054656D7065726174757235
S1131B18653A200020430A0D004C696768742069FF
S1131B286E74656E73697479206D6F6E69746F7203
S1131B38696E6720737461727465642E2E2E004C6E
S1131B486967687420696E74656E73697479206D49
S1131B586F6E69746F72696E672073746F707065E5
S1131B68642E00496E76616C696420696E707574C0
S1131B782C20706C656173652063686F6F736520D2
S10B1B88616761696E2E000023
S9030000FC
